:020000040800F2
:1000000098150020CD01000815160008C514000839
:1000100011160008410400084D1B000800000000F4
:100020000000000000000000000000002D18000883
:10003000810400080000000051160008451800085F
:10004000E7010008E7010008E7010008E7010008F0
:10005000E7010008E7010008E7010008E7010008E0
:10006000E7010008E7010008E7010008E7010008D0
:10007000E7010008E7010008E7010008E7010008C0
:10008000E7010008E7010008E7010008E7010008B0
:10009000E7010008E7010008E7010008E7010008A0
:1000A000E7010008E7010008E7010008E701000890
:1000B000E701000831190008E7010008E70100081E
:1000C000E7010008E7010008E7010008E701000870
:1000D000E7010008451B0008E7010008E7010008E8
:1000E000E7010008E7010008E7010008E701000850
:1000F000E7010008E7010008E7010008E701000840
:10010000E7010008E7010008E7010008E70100082F
:10011000E7010008E7010008E7010008E70100081F
:10012000E7010008E7010008E7010008E70100080F
:1001300000F002F800F03AF80AA090E8000C8244BF
:100140008344AAF10107DA4501D100F02FF8AFF29C
:10015000090EBAE80F0013F0010F18BFFB1A43F0A5
:10016000010318479C1E0000BC1E0000103A24BF6B
:1001700078C878C1FAD8520724BF30C830C144BF0C
:1001800004680C607047000000230024002500264E
:10019000103A28BF78C1FBD8520728BF30C148BFEA
:1001A0000B6070471FB51FBD10B510BD00F01AF9E8
:1001B0001146FFF7F7FF01F0E9FC00F038F903B44E
:1001C000FFF7F2FF03BC01F0C5FC000009488047BF
:1001D00009480047FEE7FEE7FEE7FEE7FEE7FEE729
:1001E000FEE7FEE7FEE7FEE704480549054A064B41
:1001F00070470000D918000831010008980F00204E
:10020000981500209811002098110020B2F12003C9
:100210000AD5C2F1200320FA02F001FA03F321FA11
:1002200002F140EA0300704721FA03F04FF00001A9
:1002300070470000014A00F069B80000200000206B
:100240004FF000020429C0F0128010F0030C00F0FF
:100250008180CCF1040CBCF1020F18BF00F8012B17
:10026000A8BF20F8022BA1EB0C0100F073B85FEAE5
:10027000C17C24BF00F8012B00F8012B48BF00F817
:10028000012B70474FF0013C50F8042B51F8043B10
:100290009A4221D1A2EB0C03934313EACC1317D15A
:1002A00050F8042B51F8043B9A4215D1A2EB0C03F1
:1002B000934313EACC130BD150F8042B51F8043BB1
:1002C0009A4209D1A2EB0C03934313EACC13DBD07F
:1002D0004FF00000704700BFD01A01BAB1FA81F1A7
:1002E00001F0180122FA01F0CB40C1F12001DBB28C
:1002F000C0B2C01A2CFA01F3D11A914311EAC3110A
:10030000E6D1704770477047704700002DE9F04113
:1003100015460E46040002D12C6804B90BA42046F1
:1003200000F052F80444207870B127463146384630
:1003300000F03AF80444207810B1002004F8010BD2
:1003400038462C60BDE8F0810027F9E70000000086
:100350004FF0000200B5134694469646203922BF5E
:10036000A0E80C50A0E80C50B1F12001BFF4F7AFA9
:10037000090728BFA0E80C5048BF0CC05DF804EB8B
:10038000890028BF40F8042B08BF704748BF20F8F9
:10039000022B11F0804F18BF00F8012B70470000AE
:1003A00000487047340F002030B503461D781DB15A
:1003B0000A4603E0AC4201D1181A30BD12F8014BD5
:1003C000002CF7D15B1CF1E730B503461D783DB139
:1003D0000A4612F8014B1CB1AC42FAD15B1CF5E79E
:1003E000181A30BD7546FFF7DBFFAE4605006946BB
:1003F000534620F00700854618B020B5FFF7F4FEFD
:10040000BDE820404FF000064FF000074FF0000815
:100410004FF0000B21F00701AC46ACE8C009ACE896
:10042000C009ACE8C009ACE8C0098D46704710B5FA
:100430000446AFF300802046BDE81040FFF7BFBE82
:1004400000BFFEE7F0B504460D4600260027161251
:10045000D7B200210DE0605C80EA0603074810F87F
:10046000130080EA0706054830F813000712481CFD
:1004700081B2A942EFDB46EA0720F0BD001E00086A
:10048000704700000021074AD1610749096941F01E
:100490000401054A11611146096941F040011161E9
:1004A0007047000028000020002002400021074A79
:1004B000D1610749096941F00201054A11611146FC
:1004C0004861096941F0400111617047280000202E
:1004D000002002400022054BDA61054A126942F011
:1004E0000102034B1A6101807047000028000020C0
:1004F0000020024000201E49C96801F0100139B1F6
:100500001C49C96941F002011A4AD16140F010004A
:100510001749C96801F0040139B11649C96941F0A8
:100520000101144AD16140F004001149C96901F088
:10053000010169B10F49C96941F004010D4AD16156
:1005400000BF0B49C96921F00101094AD16100BF0F
:1005500000BF40F20111884206D10549C96921F066
:100560000101034AD16101E00149C86000BF704741
:10057000002002402800002070B5044600F0B2FAC6
:10058000054609E0601C38B124B100F0ABFA401B0D
:10059000A04201D9032070BD1248C06800F00100DC
:1005A0000028EFD10F48C06800F0200020B100BF44
:1005B00020200C49C86000BF0A48C06800F0100045
:1005C00048B90848C06900F0010020B90548C06872
:1005D00000F0040018B1FFF78DFF0120DBE70020D9
:1005E000D9E70000002002402DE9F04104460E4604
:1005F0000127002500BF2648007E012802D10220E5
:10060000BDE8F08101202249087600BF2068022859
:1006100013D14CF25030FFF7AFFF90BB0120FFF732
:1006200031FF4CF25030FFF7A7FF07461948006929
:1006300020F004001749086123E04CF25030FFF726
:100640009BFFF0B94FF0FF303060A56812E02846FC
:10065000FFF72CFF4CF25030FFF78EFF07460D4896
:10066000006920F002000B4908610FB1356007E016
:1006700005F50065D4E9021001EBC020A842E6D8D8
:1006800000BF00BF00200249087600BF3846B7E728
:1006900028000020002002400348006940F080004C
:1006A0000149086100207047002002402DE9FE4FFB
:1006B00005468B46174698460126002400200290E6
:1006C00000BF2448007E012802D10220BDE8FE8F31
:1006D00001202049087600BF4CF25030FFF74CFF54
:1006E000064686BB012D02D10120029006E0022DB4
:1006F00002D10220029001E00420029000241EE0BA
:100700002201B946C24648465146FFF77FFD80B2F6
:100710000190022000FB04B000900199FFF7DAFE7F
:100720004CF25030FFF728FF06460B48006920F0D6
:1007300001000949086106B104E0601CC4B20298D6
:100740008442DDDB00BF00BF00200249087600BF05
:100750003046BBE72800002000200240074800691F
:1007600000F0800028B10648044948600548486008
:1007700001E0012070470020FCE70000002002405B
:1007800023016745AB89EFCD2DE9F84702460024E8
:10079000002000258446002700237BE14FF001085C
:1007A00008FA03F4D1F8008008EA0400A0427DD1E1
:1007B000DFF8ECA2D1F80480A8EB0A09D0453AD0C2
:1007C00014DCB8F1030F50D009DCB8F1000F31D0C0
:1007D000B8F1010F1CD0B8F1020F49D120E0B8F1F7
:1007E000110F18D0B8F1120F42D11EE0B9F5881FD1
:1007F00025D006DCB9F5803F20D0B9F5801F37D170
:100800001AE0B9F5001F18D0B9F5041F30D117E070
:10081000D1F80CC02DE0D1F80C8008F1040C28E0D0
:10082000D1F80C8008F1080C23E0D1F80C8008F115
:100830000C0C1EE000BF00BF00BF00BF00BF00BF28
:10084000D1F80880B8F1000F02D14FF0040C0BE092
:10085000D1F80880B8F1010F03D14FF0080C1461F2
:1008600002E04FF0080C546103E04FF0000C00E090
:1008700000BF00BFFF2801D8904601E002F1040844
:100880004646FF2802D84FEA830803E0A3F1080890
:100890004FEA88084746D6F800804FF00F0909FA5A
:1008A00007F928EA09080CFA07F900E07AE048EAB3
:1008B0000908C6F80080D1F8048008F08058B8F123
:1008C000805F6FD100BFDFF8DC81D8F8188048F076
:1008D0000108DFF8D091C9F81880C846D8F8188008
:1008E00008F00108CDF8008000BF00BF4FEAB9381A
:1008F0004FEA930958F829504FEA83784FEA18795C
:100900004FF00F0808FA09F825EA0805DFF8988182
:10091000424502D14FF0000824E0DFF890814245C3
:1009200002D14FF001081DE0DFF88481424502D179
:100930004FF0020816E0DFF87C81424502D14FF00B
:1009400003080FE0DFF87081424502D14FF0040840
:1009500008E0DFF86881424502D14FF0050801E068
:100960004FF006084FEA83794FEA197908FA09F837
:1009700048EA0505DFF848814FEA930948F829500D
:10098000D1F8048008F48038B8F5803F0BD1DFF847
:100990003481D8F8008048EA0008DFF82891C9F8C7
:1009A00000800AE075E0DFF81C81D8F8008028EAB2
:1009B0000008DFF81091C9F80080D1F8048008F42D
:1009C0000038B8F5003F0ED1DFF8F88008F10408D0
:1009D000D8F8008048EA0008DFF8E89009F1040937
:1009E000C9F800800DE0DFF8DC8008F10408D8F8D1
:1009F000008028EA0008DFF8CC9009F10409C9F862
:100A00000080D1F8048008F48018B8F5801F0ED15A
:100A1000DFF8B08008F10808D8F8008048EA00083C
:100A2000DFF8A09009F10809C9F800800DE0DFF8AF
:100A3000948008F10808D8F8008028EA0008DFF858
:100A4000849009F10809C9F80080D1F8048008F4FD
:100A50000018B8F5001F0ED1DFF8688008F10C0807
:100A6000D8F8008048EA0008DFF8589009F10C092E
:100A7000C9F800800DE0DFF84C8008F10C08D8F8C8
:100A8000008028EA0008DFF83C9009F10C09C9F859
:100A900000805B1C102BFFF481AEBDE8F8870000DE
:100AA000000011100010024000080140000C01403D
:100AB000001001400014014000180140001C0140DA
:100AC0000800014000040140024693680B400BB14E
:100AD000012000E0002070470AB1016101E00B0431
:100AE000036170470148006870470000040000205F
:100AF00002480068401C014908607047040000205B
:100B000010B50848006840F010000649086003204E
:100B100000F0BEF80F2000F007F800F019F80020F0
:100B200010BD00000020024070B504460748006870
:100B30004FF47A71B0FBF1F5284600F035FC002245
:100B40002146501E00F065F8002070BD0000002016
:100B500008B500BF2648806940F00100244988613B
:100B60000846806900F00100009000BF00BF03202C
:100B700000F08EF8002211466FF00B0000F049F8EB
:100B8000002211466FF00A0000F043F800221146DF
:100B90006FF0090000F03DF800221146501F00F0F0
:100BA00038F800221146101F00F033F800221146D9
:100BB000901E00F02EF800221146501E00F029F879
:100BC00000BF0C48406820F0E0600A4948600846D1
:100BD000406840F08060486000BF00BF0846406841
:100BE00020F0E060486008464068486000BF08BDEB
:100BF000001002400000014000BF00F01F02012170
:100C000091404209920002F1E022C2F8001100BFB7
:100C100070472DE9F05F80460D461646002700F02C
:100C2000FBFC074639462A46334601F00700C0F16F
:100C3000070ABAF1040F02D94FF0040A01E0C0F12B
:100C4000070AD14600F1040ABAF1070F02D24FF0A9
:100C5000000A01E0A0F1030AD4464FF0010A0AFAA3
:100C600009FAAAF1010A0AEA020A0AFA0CFA4FF092
:100C7000010B0BFA0CFBABF1010B0BEA030B4AEA7D
:100C80000B042146404600F0CFFCBDE8F09F000079
:100C900000BF00F00702064B19684FF6FF0319402A
:100CA000044B0B4343EA0221014B196000BF70471C
:100CB0000CED00E00000FA0570B504460D46002674
:100CC0006248006800F00700A8420ED25F48006842
:100CD00020F0070028435D4908600846006800F0DE
:100CE0000700A84201D0012070BD207800F002006A
:100CF000022807D15648406820F0F000A168084358
:100D000053494860207800F0010000285DD06068F9
:100D1000012806D14E48006800F4003090B9012047
:100D2000E2E76068022806D14948006800F00070D8
:100D300040B90120D8E74648006800F0020008B931
:100D40000120D1E74248406820F003006168084371
:100D50003F494860FFF7C6FE06466068012810D18B
:100D600008E0FFF7BFFE801B41F28831884201D9BD
:100D70000320B9E73648406800F00C000428F0D1A1
:100D800023E06068022810D108E0FFF7ABFE801B6B
:100D900041F28831884201D90320A5E72C484068F8
:100DA00000F00C000828F0D10FE008E0FFF79AFEF1
:100DB000801B41F28831884201D9032094E72448FE
:100DC000406800F00C000028F0D12048006800F0D6
:100DD0000700A8420ED91D48006820F007002843EC
:100DE0001A4908600846006800F00700A84201D0D0
:100DF000012079E7207800F00400042807D1144886
:100E0000406820F4E060E1680843114948602078B8
:100E100000F00800082808D10D48406820F4605010
:100E2000216940EAC1000A49486000F03DF80849DC
:100E30004968C1F30311074A515CC840064908607C
:100E40000F20FFF771FE00204EE700000020024057
:100E500000100240E81D0008000000200148006862
:100E6000704700000000002000B5FFF7F7FF0449BD
:100E70004968C1F30221034A515CC84000BD00002B
:100E800000100240F81D000800B5FFF7E7FF044915
:100E90004968C1F3C221034A515CC84000BD00004B
:100EA00000100240F81D0008F0B585B00FF2700C7C
:100EB0009CE8E01001A8A0E8E0101DA52D680095B1
:100EC000002100240022002300201A4D696801F04F
:100ED0000C05FDB1042D02D0082D1AD101E01648F1
:100EE0001AE001ADC1F38346AB5D01F480355DB11D
:100EF000104D6D68C5F340451DF805400E4DB5FB1E
:100F0000F4F505FB03F202E00C4D03FB05F210467D
:100F100002E000BF084800BF00BF05B0F0BD000000
:100F200002030405060708090A0B0C0D0E0F10102A
:100F3000010200000010024000127A0000093D008A
:100F4000F8B504460025207800F00100002878D08C
:100F5000F848406800F00C0004280CD0F5484068C0
:100F600000F00C00082811D1F248406800F48030ED
:100F7000B0F5803F0AD1EF48006800F40030002847
:100F80005FD0606800285CD10120F8BD00BF6068B8
:100F9000B0F5803F06D1E748006840F48030E5496D
:100FA000086028E0606858B9E248006820F48030A2
:100FB000E04908600846006820F4802008601AE0D4
:100FC0006068B0F5A02F0BD1DA48006840F48020AB
:100FD000D84908600846006840F4803008600AE09C
:100FE000D448006820F48030D24908600846006880
:100FF00020F48020086000BF606888B1FFF772FDB0
:10100000054606E0FFF76EFD401B642801D903206A
:10101000BBE7C848006800F400300028F2D010E0B8
:10102000FFF760FD054606E0FFF75CFD401B642806
:1010300001D90320A9E7BF48006800F40030002868
:10104000F2D1207800F00200022857D1B948406858
:1010500000F00C0050B1B748406800F00C000828C0
:1010600018D1B448406800F4803098B9B14800689D
:1010700000F0020020B12069012801D0012084E79E
:10108000AC48006820F0F800616940EAC100A94955
:10109000086033E02069E8B10120A7490860FFF744
:1010A00021FD054606E0FFF71DFD401B022801D982
:1010B00003206AE79F48006800F002000028F2D091
:1010C0009C48006820F0F800616940EAC100994935
:1010D000086013E0002098490860FFF703FD05460B
:1010E00006E0FFF7FFFC401B022801D903204CE774
:1010F0009048006800F002000028F2D1207800F04B
:10110000080008282DD1A069B8B101208B490860DA
:10111000FFF7E8FC054606E0FFF7E4FC401B022869
:1011200001D9032031E78348406A00F0020000281B
:10113000F2D0012000F0BCFA13E000207F490860E3
:10114000FFF7D0FC054606E0FFF7CCFC401B022869
:1011500001D9032019E77748406A00F0020000280F
:10116000F2D1207800F00400042873D100267148E1
:10117000C06900F0805070B900BF6E48C06940F08F
:1011800080506C49C8610846C06900F080500090EA
:1011900000BF00BF01266A48006800F48070B0B943
:1011A0006748006840F4807065490860FFF79AFC62
:1011B000054606E0FFF796FC401B642801D9032092
:1011C000E3E65F48006800F480700028F2D000BFBA
:1011D000E068012806D15748006A40F001005549EF
:1011E000086227E0E06858B95248006A20F0010020
:1011F000504908620846006A20F00400086219E0BD
:10120000E06805280BD14B48006A40F004004949CA
:1012100008620846006A40F0010008620AE045489A
:10122000006A20F00100434908620846006A20F085
:101230000400086200BFE068A0B1FFF753FC054658
:1012400009E0FFF74FFC401B41F28831884202D988
:1012500003209AE622E03748006A00F002000028E6
:10126000EFD012E0FFF73EFC054608E0FFF73AFC3E
:10127000401B41F28831884201D9032085E62D4880
:10128000006A00F002000028F0D1012E05D12948A3
:10129000C06920F080502749C86100BFE069C8B329
:1012A0002448406800F00C00082860D0E06902285B
:1012B00048D1002020490866FFF714FC054606E0E7
:1012C000FFF710FC401B022801D903205DE61948F6
:1012D000006800F000700028F2D1206AB0F5803F6D
:1012E00007D11448406820F40030A1680843114930
:1012F0004860D4E9080108430E49496821F4741193
:1013000008430C49486001200B490866FFF7EAFBD7
:10131000054607E02DE0FFF7E5FB401B022801D959
:10132000032032E60348006800F000700028F2D085
:101330001FE00000001002400000424280044242D0
:101340000070004000200C490866FFF7CBFB054603
:1013500006E0FFF7C7FB401B022801D9032014E673
:101360000648006800F000700028F2D101E001207A
:101370000BE6002009E60000000042420010024097
:10138000042808D14FF0E021096941F004014FF031
:10139000E022116107E04FF0E021096921F004012A
:1013A0004FF0E0221161704770B504462546681E73
:1013B000B0F1807F01D301200FE0681E4FF0E021E3
:1013C00048610F214FF0FF3000F02EF900204FF060
:1013D000E021886107200861002070BD10B5044637
:1013E0000CB9012010BDA06900B100E000BF94F865
:1013F000390028B9002084F83800204600F028F889
:10140000242084F839002068C06820F40050216846
:10141000C860204600F0B2FA2068006920F49040CD
:10142000216808612068406920F02A00216848612D
:101430002068C06840F400502168C8600020E06364
:10144000202084F8390084F83A000020CAE7000020
:1014500010B586B0044618492068884229D100BFDB
:101460001648806940F480401449886108468069C4
:1014700000F48040019000BF00BF48150290022098
:1014800003900320059002A90D48FFF77DF94FF462
:101490008060029000200390049002A90848FFF7A2
:1014A00073F9002211462520FFF7B3FB2520FFF733
:1014B000A3FB06B010BD0000003801400010024040
:1014C0000008014000BFFEE72DE9F05F06460F4629
:1014D00090460024B3463D46A1461CE068784FEA9A
:1014E000002A287850441FFA80FAAD1C2046611C5F
:1014F0008CB20E4921F810A0B4F5806F07D10024FA
:101500004FF48062584600F0FBF80BF5006B09F1D0
:1015100002001FFA80F9C145E0D324B122460349F5
:10152000584600F0EDF8BDE8F09F000034070020B9
:1015300000B585B000BF2048806940F010001E490A
:1015400088610846806900F01000009000BF00BF6D
:1015500000BF0846806940F0040088610846806941
:1015600000F00400009000BF00BF00BF0846806983
:1015700040F0080088610846806900F0080000908B
:1015800000BF00BF012220210C48FFF7A5FA202050
:101590000190012002900220049001A90748FFF762
:1015A000F3F80120019000200290039001A9044863
:1015B000FFF7EAF805B000BD00100240001001403E
:1015C000000C014010B50D480D4908604FF4E130A2
:1015D000486000210A488160C16001610C214161BD
:1015E00000218161C161FFF7F9FE18B1242105A036
:1015F00000F0AEFA00F0B0FA10BD00000038014073
:10160000480000205379735C756172742E6300008A
:1016100000BFFEE77047000002480068C0F30220E8
:10162000704700000CED00E010B5002807DA0A074B
:10163000140E054A00F00F031B1FD45403E00A07E1
:10164000130E024A135410BD18ED00E000E400E050
:1016500070470000F8B50446254600200090284653
:10166000E91705EB91518912A5EB812111B1A9125E
:10167000491C00E0A9120F46FFF770F800260DE0A4
:10168000002009490860094800EB86208860012095
:10169000C86069460448FEF7A7FF761CBE42EFD338
:1016A000FEF7FAFFF8BD00002407002000600008E4
:1016B00008B508490968C9084FF47A72B1FBF2F11C
:1016C0004143009100BF00BF00994A1E00920029CB
:1016D000F9D108BD0000002030B503460C46154680
:1016E000002207E0184600F008F824F812009B1CBE
:1016F000501C82B2AA42F5DB30BD01460888704713
:101700002DE9F84F80468A46174600200090B8F130
:10171000006F02D33748804501D3BDE8F88FFFF74B
:101720001DF8A8F1006B4FEA9B26CBF34809C9F5D9
:101730000074A74200DC3C4655E04FF0006101EB2D
:1017400086208A142C49FFF7C7FF00250BE009EB20
:101750000500294931F810004FF6FF71884200D08A
:1017600003E0681C85B2A542F1DB00BFA54223DA85
:101770000020224908604FF0006000EB862088605E
:101780000120C86069461D48FEF72EFF002508E0CD
:101790003AF8150005EB0901174A22F81100681CF8
:1017A00085B2A542F4DB4FF0006101EB86208A147C
:1017B000114900F025F804E022465146404600F069
:1017C0001FF8A74200D10FE0761C4FF000090AEB8A
:1017D000440AA044381B87B2B7F5007F02DD4FF4FE
:1017E000007400E03C46A8E700BFFEF755FF00BFCD
:1017F00093E70000000001082403002024070020D4
:101800002DE9F04104460E46174600250AE036F859
:1018100015C06246002321460120FEF747FFA41CA5
:10182000681C85B2BD42F2DBBDE8F0817047000064
:1018300001B5022269460248FFF762FF08BD0000B9
:10184000005C000810B5FFF753F910BD10B590B05B
:1018500001200690000407900020089001200A90C3
:1018600002200D90C1030E914FF4E0110F9106A8D4
:10187000FFF766FB18B1142114A000F069F90F20DE
:10188000019002200290002003904FF480600490A9
:1018900000200590022101A8FFF70EFA18B12221BD
:1018A0000AA000F055F9FFF7D9FA4FF47A71B0FBAE
:1018B000F1F42046FFF778FD0420FFF761FD0022D8
:1018C0001146501EFFF7A5F910B010BD5379735C97
:1018D0005379732E630000001148006840F0010046
:1018E0000F490860084640680E4908400C494860A6
:1018F000084600680C490840094908600846006825
:1019000020F4802008600846406820F4FE0048600B
:101910004FF41F008860C803044908607047000046
:10192000001002400000FFF8FFFFF6FE08ED00E0A7
:1019300010B510480068006900F00100C0B10D4802
:101940000068C06800F0010090B16FF00100094923
:101950000968086120210848FFF7B6F808B9012096
:1019600000E000200446224620210348FFF7B4F897
:1019700010BD0000E4020020001001402DE9F041FC
:10198000044600252068006920F44050E1680843BF
:10199000216808612169A06808436169084305431B
:1019A0002068C06841F20C61884328432168C86000
:1019B0002068406920F44070A169084321684861AB
:1019C0005F49206888425CD1FFF75EFA00EBC001F6
:1019D00001EB001061688900B0FBF1F6FFF754FAE3
:1019E00000EBC00101EB001061688900B0FBF1F071
:1019F0006421B0FBF1F000EBC00101EB0010A6EB9D
:101A00008000322101EB00106421B0FBF1F000F006
:101A1000F006FFF739FA00EBC00101EB0010616836
:101A20008900B0FBF1F06421B0FBF1F006EB001689
:101A3000FFF72AFA00EBC00101EB00106168890092
:101A4000B0FBF1F7FFF720FA00EBC00101EB00104B
:101A500061688900B0FBF1F06421B0FBF1F000EBAC
:101A6000C00101EB0010A7EB8000322101EB001058
:101A70006421B0FBF1F000F00F0030442168886071
:101A80005BE0FFF7F1F900EBC00101EB00106168CA
:101A90008900B0FBF1F6FFF7E7F900EBC00101EBBD
:101AA000001061688900B0FBF1F06421B0FBF1F037
:101AB00000EBC00101EB0010A6EB8000322101EB2E
:101AC00000106421B0FBF1F000F0F006FFF7CCF954
:101AD00000EBC00101EB001061688900B0FBF1F080
:101AE0006421B0FBF1F006EB0016FFF7BDF900EB47
:101AF000C00101EB001061688900B0FBF1F7FFF74E
:101B0000B3F900EBC00101EB001061688900B0FB84
:101B1000F1F06421B0FBF1F000EBC00101EB00102B
:101B2000A7EB8000322101EB00106421B0FBF1F043
:101B300000F00F00304421688860BDE8F0810000AB
:101B40000038014000B500F0F7F800BD00BFFEE727
:101B500000BFFEE700BF704710B5012009490870BB
:101B6000002048804FF416710648001DFEF768FB00
:101B700005480068C06840F0200003490968C86053
:101B800010BD00008800002048000020FEF7B8FFCC
:101B9000FFF75CFEFFF7CCFCFFF714FD01E000F05F
:101BA00011F8FCE701200549087005480068C06885
:101BB00040F0200002490968C86070478800002092
:101BC000480000202DE9F0414A48007803287DD1E3
:101BD00048480079552808D14648001D4649086004
:101BE00046A1FEF727FB05462E4645A13046FEF7E7
:101BF00049FB70BB404800680B3044490860084608
:101C000000680078A02824D10846006840780128A0
:101C10001FD00846006880883D4908803B4800681E
:101C200040883C4908800888C11700EBD15149120F
:101C3000A0EB412121B1374909884912491C02E032
:101C4000344909884912344A118032480088FFF724
:101C500001FD32A13046FEF715FBC0BB32480188BA
:101C60000088401C304A10802A480088401E81426B
:101C70000DDC10460088401E2C4901EB40248A14DC
:101C80002B4801680B312046FFF71EFC27E0264851
:101C9000008820490988884221D123480088401EB5
:101CA000224901EB40248A14214801680B31204667
:101CB000FFF70AFC1D4F4FF6FF72164801883846A1
:101CC000FEF7C0FB12490988884201E00FE006E0F8
:101CD00002D11848FFF7ACFD002013490880FFF738
:101CE00061FF4FF416710348001DFEF7A9FABDE825
:101CF000F081000088000020100000203A00000061
:101D0000557064617465696E666F00001400002090
:101D1000180000201A0000201C000020557064618B
:101D200074656461746100001E000020006000089A
:101D30000C00002055FFFF55294909680968C1F3C7
:101D4000401109B3264909684968C8B26FF02001FB
:101D5000234A1268116023490978012915D12049C5
:101D60000968C96841F010011D4A1268D16002215A
:101D70001C4A11700021518011464A884988491C2B
:101D8000184B5980191D88540BE01649097802290F
:101D900007D114494A884988491C124B5980191D9A
:101DA00088540F4909680968C1F30011B1B10C49A1
:101DB0000968C96821F01001094A1268D160084910
:101DC0000968C96821F02001054A1268D1600549F7
:101DD0000978022902D10321024A117070470000DC
:101DE00048000020880000200000000000000000E3
:101DF00001020304060708090000000001020304B1
:101E00000000C1C081C1400101C3C003800241C2C2
:101E100001C6C006800741C70005C1C581C4400492
:101E200001CCC00C800D41CD000FC1CF81CE400E42
:101E3000000AC1CA81CB400B01C9C009800841C852
:101E400001D8C018801941D9001BC1DB81DA401AC2
:101E5000001EC1DE81DF401F01DDC01D801C41DC92
:101E60000014C1D481D5401501D7C017801641D6C2
:101E700001D2C012801341D30011C1D181D04010D2
:101E800001F0C030803141F10033C1F381F24032C2
:101E90000036C1F681F7403701F5C035803441F492
:101EA000003CC1FC81FD403D01FFC03F803E41FE42
:101EB00001FAC03A803B41FB0039C1F981F8403852
:101EC0000028C1E881E9402901EBC02B802A41EAC2
:101ED00001EEC02E802F41EF002DC1ED81EC402C92
:101EE00001E4C024802541E50027C1E781E64026C2
:101EF0000022C1E281E3402301E1C021802041E0D2
:101F000001A0C060806141A10063C1A381A24062C1
:101F10000066C1A681A7406701A5C065806441A491
:101F2000006CC1AC81AD406D01AFC06F806E41AE41
:101F300001AAC06A806B41AB0069C1A981A8406851
:101F40000078C1B881B9407901BBC07B807A41BAC1
:101F500001BEC07E807F41BF007DC1BD81BC407C91
:101F600001B4C074807541B50077C1B781B64076C1
:101F70000072C1B281B3407301B1C071807041B0D1
:101F80000050C190819140510193C05380524192C1
:101F90000196C056805741970055C1958194405491
:101FA000019CC05C805D419D005FC19F819E405E41
:101FB000005AC19A819B405B0199C0598058419851
:101FC0000188C04880494189004BC18B818A404AC1
:101FD000004EC18E818F404F018DC04D804C418C91
:101FE0000044C184818540450187C04780464186C1
:101FF0000182C042804341830041C18181804040D1
:102000002020000800000020240000006C010008CF
:1020100044200008240000207415000088010008F6
:1020200000A24A04000000000000000000000000C0
:1020300000000000000000000000000000000000A0
:04204000000000009C
:0400000508000131BD
:00000001FF
