:020000040800F2
:10000000280F0020CD010008D9230008011E000898
:10001000D52300089D0200087F2E00080000000084
:10002000000000000000000000000000F9250008AA
:10003000D50200080000000015240008B9290008B6
:10004000E7010008E7010008E7010008E7010008F0
:10005000E7010008E7010008E7010008E7010008E0
:10006000E7010008E7010008E7010008E7010008D0
:10007000E7010008E7010008E7010008E7010008C0
:10008000E7010008E7010008E7010008E7010008B0
:10009000E7010008E7010008E7010008E7010008A0
:1000A000E7010008E7010008E7010008E701000890
:1000B000E7010008E7010008E7010008E701000880
:1000C000E7010008E7010008E7010008E701000870
:1000D000E70100083D2E0008E7010008E7010008DD
:1000E000E7010008E7010008E7010008E701000850
:1000F000E7010008E7010008E7010008E701000840
:10010000E7010008E7010008E7010008E70100082F
:10011000E7010008E7010008E7010008E70100081F
:10012000E7010008E7010008E7010008E70100080F
:1001300000F002F800F03AF80AA090E8000C8244BF
:100140008344AAF10107DA4501D100F02FF8AFF29C
:10015000090EBAE80F0013F0010F18BFFB1A43F0A5
:10016000010318475833000078330000103A24BFC9
:1001700078C878C1FAD8520724BF30C830C144BF0C
:1001800004680C607047000000230024002500264E
:10019000103A28BF78C1FBD8520728BF30C148BFEA
:1001A0000B6070471FB51FBD10B510BD00F044F8BF
:1001B0001146FFF7F7FF03F07FF800F062F803B491
:1001C000FFF7F2FF03BC03F071F800000948804715
:1001D00009480047FEE7FEE7FEE7FEE7FEE7FEE729
:1001E000FEE7FEE7FEE7FEE704480549054A064B41
:1001F000704700004D2A000831010008280900203E
:10020000280F0020280B0020280B0020B2F120032B
:100210000AD5C2F1200320FA02F001FA03F321FA11
:1002200002F140EA0300704721FA03F04FF00001A9
:100230007047704770477047754600F02BF8AE4620
:1002400005006946534620F00700854618B020B5E2
:10025000FFF7CAFFBDE820404FF000064FF000074F
:100260004FF000084FF0000B21F00701AC46ACE85E
:10027000C009ACE8C009ACE8C009ACE8C0098D46CB
:10028000704710B50446AFF300802046BDE810402B
:10029000FFF795BF00487047C408002000BFFEE785
:1002A000F0B505460E460024AF1905E015F8011B10
:1002B000A0B202F0CBFD0446BD42F7D3A0B20021AC
:1002C00002F0C4FD04462046002102F0BFFD0446B2
:1002D0002046F0BD7047000070B586B0044600258A
:1002E00000200590002600F039FD0B48001BC50AD0
:1002F00000200190039401200290049505A901A813
:1003000000F0B6FB064600F0ADFC16B1012006B0C9
:1003100070BD0020FBE700000000040810B588B0A5
:10032000002400F01BFD01A800F02AFC00F09AFC5C
:100330000448039920EA010414B1022008B010BD5A
:100340000020FBE7F0FF0F0010B500F007FD00BF35
:1003500034200349C86000BF00F084FC10BD0000D9
:10036000002002402DE9F04104460E4617460025C4
:1003700000F0F4FC00BF15E056F825C062460023EB
:100380002146022000F092FC48B956F8251020685A
:10039000884202D00220BDE8F081241D01E0032044
:1003A000F9E76D1CBD4202D203488442E4D900F053
:1003B00059FC0020EFE70000FCFF030870B58EB089
:1003C000044600260025684600F0DAFB0CB901203F
:1003D00000E00020089001200790A5208DF82C0057
:1003E0009DF811008DF82D000B49029840EA010696
:1003F00000F0B4FC00F044FC00F092FB054625B987
:10040000099607A800F0CAFB054615B900200EB0F2
:1004100070BD0420FBE70000F0FF0F000021074A39
:10042000D1610749096941F00401054A116111468A
:10043000096941F040011161704700001800002077
:10044000002002402DE9F047044600254FF6FF76D4
:100450003746B046B14600F0F5F80443E6B2C4F3BF
:100460000727C4F307484FEA14694CF2503000F0F4
:10047000E3F90546002D4FD12949C86100F050FB32
:100480000546002D48D12748006940F01000254955
:100490000861FF2E09D02448008830432249088093
:1004A0004CF2503000F0C8F905466DB9FF2F0BD063
:1004B0001D48801C008838431B49891C08804CF269
:1004C000503000F0B9F905467DB9B8F1FF0F0CD0F6
:1004D0001548001D008840EA08001349091D0880DE
:1004E0004CF2503000F0A8F905467DB9B9F1FF0F84
:1004F0000CD00D48801D008840EA09000A49891D7A
:1005000008804CF2503000F097F905460548006924
:1005100020F01000034908612846BDE8F08700007C
:10052000180000200020024008F8FF1F2DE9F047C6
:10053000044600254FF6FF763746B046B14600F038
:1005400081F8C0432043C443E6B2C4F30727C4F391
:1005500007484FEA14694CF2503000F06DF9054637
:10056000002D4FD12949C86100F0DAFA0546002D67
:1005700048D12748006940F0100025490861FF2E46
:1005800009D0244800883040224908804CF250307D
:1005900000F052F905466DB9FF2F0BD01D48801CA5
:1005A000008838401B49891C08804CF2503000F00C
:1005B00043F905467DB9B8F1FF0F0CD01548001D71
:1005C000008800EA08001349091D08804CF25030E9
:1005D00000F032F905467DB9B9F1FF0F0CD00D4896
:1005E000801D008800EA09000A49891D08804CF234
:1005F000503000F021F905460548006920F0100050
:10060000034908612846BDE8F08700001800002073
:100610000020024008F8FF1FA5200021044AD269EB
:1006200002F00201022901D1002000E0A52070475C
:10063000002002400248C069C0F3820070470000F9
:10064000002002400148006A70470000002002407C
:1006500070B504460D4601264CF2503000F0ECF81F
:100660000646A6B900200B49C8610B48006940F056
:1006700010000949086125804CF2503000F0DCF888
:1006800006460548006920F010000349086130461D
:1006900070BD0000180000200020024070B5054623
:1006A00000244CF2503000F0C7F804465CBB002038
:1006B0001649C8611648006940F0200014490861D5
:1006C0000846006940F0400008614CF2503000F0EC
:1006D000B3F804460E48006920F020000C49086178
:1006E0008CB90846006940F010000861094805808F
:1006F0004CF2503000F0A0F804460548006920F0A4
:10070000100003490861204670BD00001800002059
:100710000020024000F8FF1F70B5044600254CF28F
:10072000503000F089F80546BDB900200C49C86179
:100730000C48006940F010000A49086144F0880044
:10074000094908804CF2503000F076F8054605481B
:10075000006920F0100003490861284670BD0000C0
:10076000180000200020024002F8FF1F0021074A65
:10077000D1610749096941F00201054A1161114639
:100780004861096941F0400111617047180000207B
:10079000002002400022054BDA61054A126942F04E
:1007A0000102034B1A61018070470000180000200D
:1007B0000020024000201E49C96801F0100139B133
:1007C0001C49C96941F002011A4AD16140F0100088
:1007D0001749C96801F0040139B11649C96941F0E6
:1007E0000101144AD16140F004001149C96901F0C6
:1007F000010169B10F49C96941F004010D4AD16194
:1008000000BF0B49C96921F00101094AD16100BF4C
:1008100000BF40F20111884206D10549C96921F0A3
:100820000101034AD16101E00149C86000BF70477E
:10083000002002401800002070B5044600F04AFC79
:10084000054609E0601C38B124B100F043FC401BB0
:10085000A04201D9032070BD1248C06800F0010019
:100860000028EFD10F48C06800F0200020B100BF81
:1008700020200C49C86000BF0A48C06800F0100082
:1008800048B90848C06900F0010020B90548C068AF
:1008900000F0040018B1FFF78DFF0120DBE7002016
:1008A000D9E700000020024070B50446002594F806
:1008B0002100022803D00420A0630125C1E02068A4
:1008C000006820F00E00216808602068006820F0B1
:1008D0000100216808605C492068884252D95A4961
:1008E00078392068884201D1012047E056496439AF
:1008F0002068884201D1102040E0534950392068D7
:10090000884201D1801539E04F493C39206888423E
:1009100001D1801432E04C4928392068884202D144
:100920004FF480302AE0484914392068884202D1C7
:100930004FF4801022E044492068884201D14004ED
:100940001CE042492068884201D1012016E03F495D
:1009500014312068884201D110200FE03B49283132
:100960002068884201D1801508E038493C31206870
:10097000884201D1801401E04FF480303349091FCF
:10098000086051E0304978392068884201D101205F
:1009900047E02D4964392068884201D1102040E0A9
:1009A000294950392068884201D1801539E026490B
:1009B0003C392068884201D1801432E0224928392C
:1009C0002068884202D14FF480302AE01E49143951
:1009D0002068884202D14FF4801022E01A49206832
:1009E000884201D140041CE018492068884201D1A6
:1009F000012016E0154914312068884201D11020E9
:100A00000FE0124928312068884201D1801508E0A2
:100A10000E493C312068884201D1801401E04FF436
:100A20008030094980394860012084F8210000BFE6
:100A3000002084F8200000BF606B10B12046616B7D
:100A40008847284670BD000080000240080402402C
:100A500031B500F03FFB0546009C601C00B1641CF2
:100A600000BF00F037FB401BA042FAD338BD0000A6
:100A70002DE9F04104460E460127002500BF264817
:100A8000007E012802D10220BDE8F0810120224928
:100A9000087600BF2068022813D14CF25030FFF7CF
:100AA000CBFE90BB0120FFF7B9FC4CF25030FFF7B2
:100AB000C3FE07461948006920F004001749086181
:100AC00023E04CF25030FFF7B7FEF0B94FF0FF30A3
:100AD0003060A56812E02846FFF748FE4CF250301F
:100AE000FFF7AAFE07460D48006920F002000B49F7
:100AF00008610FB1356007E005F50065D4E9021023
:100B000001EBC020A842E6D800BF00BF0020024988
:100B1000087600BF3846B7E71800002000200240E2
:100B200070B5A5250124FFF777FDC5B24CF2503012
:100B3000FFF782FE0446ECB900200F49C8610F4858
:100B4000006940F020000D4908610846006940F046
:100B5000400008614CF25030FFF76EFE0446074833
:100B6000006920F02000054908611CB92846FFF7FC
:100B700095FD0446204670BD18000020002002406C
:100B800010B5044607202060FFF75CFDA060FFF76A
:100B900043FD2074FFF74EFD607410BD70B5044630
:100BA000012500BF2E48007E012801D1022070BD22
:100BB00001202B49087600BF207800F0010098B191
:100BC0006068012804D1A068FFF7B0FC054603E087
:100BD000A068FFF737FC054635B100BF002020496B
:100BE000087600BF2846E2E7207800F002000228DD
:100BF0000BD1207CFFF752FD054635B100BF002028
:100C00001749087600BF2846D1E7207800F0040095
:100C100004280BD1607CFFF77FFD054635B100BF8E
:100C200000200F49087600BF2846C0E7207800F072
:100C3000080008280CD1217E6069FFF709FD0546F0
:100C400035B100BF00200649087600BF2846AEE750
:100C500000BF00200249087600BF2846A7E7000031
:100C6000180000200348006940F080000149086135
:100C7000002070470020024010B500F015FB10BDA9
:100C80000748006900F4007028B9064804498860E4
:100C90000548886001E0012070470020FCE7000063
:100CA0000020024023016745AB89EFCD2DE9FE4FBF
:100CB00005468B46174698460126002400200290E0
:100CC00000BF2448007E012802D10220BDE8FE8F2B
:100CD00001202049087600BF4CF25030FFF7ACFDF0
:100CE000064686BB012D02D10120029006E0022DAE
:100CF00002D10220029001E00420029000241EE0B4
:100D00002201B946C24648465146FFF77FFA80B2F3
:100D10000190022000FB04B000900199FFF73AFD1A
:100D20004CF25030FFF788FD06460B48006920F072
:100D300001000949086106B104E0601CC4B20298D0
:100D40008442DDDB00BF00BF00200249087600BFFF
:100D50003046BBE718000020002002400748006929
:100D600000F0800028B10648044948600548486002
:100D700001E0012070470020FCE700000020024055
:100D800023016745AB89EFCD2DE9F84702460024E2
:100D9000002000258446002700237BE14FF0010856
:100DA00008FA03F4D1F8008008EA0400A0427DD1DB
:100DB000DFF8ECA2D1F80480A8EB0A09D0453AD0BC
:100DC00014DCB8F1030F50D009DCB8F1000F31D0BA
:100DD000B8F1010F1CD0B8F1020F49D120E0B8F1F1
:100DE000110F18D0B8F1120F42D11EE0B9F5881FCB
:100DF00025D006DCB9F5803F20D0B9F5801F37D16A
:100E00001AE0B9F5001F18D0B9F5041F30D117E06A
:100E1000D1F80CC02DE0D1F80C8008F1040C28E0CA
:100E2000D1F80C8008F1080C23E0D1F80C8008F10F
:100E30000C0C1EE000BF00BF00BF00BF00BF00BF22
:100E4000D1F80880B8F1000F02D14FF0040C0BE08C
:100E5000D1F80880B8F1010F03D14FF0080C1461EC
:100E600002E04FF0080C546103E04FF0000C00E08A
:100E700000BF00BFFF2801D8904601E002F104083E
:100E80004646FF2802D84FEA830803E0A3F108088A
:100E90004FEA88084746D6F800804FF00F0909FA54
:100EA00007F928EA09080CFA07F900E07AE048EAAD
:100EB0000908C6F80080D1F8048008F08058B8F11D
:100EC000805F6FD100BFDFF8DC81D8F8188048F070
:100ED0000108DFF8D091C9F81880C846D8F8188002
:100EE00008F00108CDF8008000BF00BF4FEAB93814
:100EF0004FEA930958F829504FEA83784FEA187956
:100F00004FF00F0808FA09F825EA0805DFF898817C
:100F1000424502D14FF0000824E0DFF890814245BD
:100F200002D14FF001081DE0DFF88481424502D173
:100F30004FF0020816E0DFF87C81424502D14FF005
:100F400003080FE0DFF87081424502D14FF004083A
:100F500008E0DFF86881424502D14FF0050801E062
:100F60004FF006084FEA83794FEA197908FA09F831
:100F700048EA0505DFF848814FEA930948F8295007
:100F8000D1F8048008F48038B8F5803F0BD1DFF841
:100F90003481D8F8008048EA0008DFF82891C9F8C1
:100FA00000800AE075E0DFF81C81D8F8008028EAAC
:100FB0000008DFF81091C9F80080D1F8048008F427
:100FC0000038B8F5003F0ED1DFF8F88008F10408CA
:100FD000D8F8008048EA0008DFF8E89009F1040931
:100FE000C9F800800DE0DFF8DC8008F10408D8F8CB
:100FF000008028EA0008DFF8CC9009F10409C9F85C
:101000000080D1F8048008F48018B8F5801F0ED154
:10101000DFF8B08008F10808D8F8008048EA000836
:10102000DFF8A09009F10809C9F800800DE0DFF8A9
:10103000948008F10808D8F8008028EA0008DFF852
:10104000849009F10809C9F80080D1F8048008F4F7
:101050000018B8F5001F0ED1DFF8688008F10C0801
:10106000D8F8008048EA0008DFF8589009F10C0928
:10107000C9F800800DE0DFF84C8008F10C08D8F8C2
:10108000008028EA0008DFF83C9009F10C09C9F853
:1010900000805B1C102BFFF481AEBDE8F8870000D8
:1010A000000011100010024000080140000C014037
:1010B000001001400014014000180140001C0140D4
:1010C00008000140000401400AB1016101E00B0485
:1010D0000361704701480068704700000400002069
:1010E00002480068401C0149086070470400002065
:1010F00010B50848006840F0100006490860032059
:1011000000F0BEF80F2000F007F800F019F80020FA
:1011100010BD00000020024070B50446074800687A
:101120004FF47A71B0FBF1F5284600F057FC00222D
:101130002146501E00F065F8002070BD0000002020
:1011400008B500BF2648806940F001002449886145
:101150000846806900F00100009000BF00BF032036
:1011600000F08EF8002211466FF00B0000F049F8F5
:10117000002211466FF00A0000F043F800221146E9
:101180006FF0090000F03DF800221146501F00F0FA
:1011900038F800221146101F00F033F800221146E3
:1011A000901E00F02EF800221146501E00F029F883
:1011B00000BF0C48406820F0E0600A4948600846DB
:1011C000406840F08060486000BF00BF084640684B
:1011D00020F0E060486008464068486000BF08BDF5
:1011E000001002400000014000BF00F01F0201217A
:1011F00091404209920002F1E022C2F8001100BFC2
:1012000070472DE9F05F80460D461646002701F035
:10121000E5F8074639462A46334601F00700C0F193
:10122000070ABAF1040F02D94FF0040A01E0C0F135
:10123000070AD14600F1040ABAF1070F02D24FF0B3
:10124000000A01E0A0F1030AD4464FF0010A0AFAAD
:1012500009FAAAF1010A0AEA020A0AFA0CFA4FF09C
:10126000010B0BFA0CFBABF1010B0BEA030B4AEA87
:101270000B042146404601F0B9F8BDE8F09F00009C
:1012800000BF00F00702064B19684FF6FF03194034
:10129000044B0B4343EA0221014B196000BF704726
:1012A0000CED00E00000FA0500BF00BF00BF00BF6A
:1012B00000BFBFF34F8F00BF00BF00BF09480068E9
:1012C00000F4E06008490843001D0649086000BFBB
:1012D00000BF00BFBFF34F8F00BF00BF00BF00BF04
:1012E00000BFFDE70CED00E00000FA0570B5044614
:1012F0000D4600266248006800F00700A8420ED2A2
:101300005F48006820F0070028435D4908600846F0
:10131000006800F00700A84201D0012070BD2078CD
:1013200000F00200022807D15648406820F0F00083
:10133000A168084353494860207800F00100002864
:101340005DD06068012806D14E48006800F4003086
:1013500090B90120E2E76068022806D14948006898
:1013600000F0007040B90120D8E74648006800F05E
:10137000020008B90120D1E74248406820F003008C
:10138000616808433F494860FFF7A4FE064660686D
:10139000012810D108E0FFF79DFE801B41F2883143
:1013A000884201D90320B9E73648406800F00C00B4
:1013B0000428F0D123E06068022810D108E0FFF78C
:1013C00089FE801B41F28831884201D90320A5E7BC
:1013D0002C48406800F00C000828F0D10FE008E02D
:1013E000FFF778FE801B41F28831884201D9032043
:1013F00094E72448406800F00C000028F0D1204811
:10140000006800F00700A8420ED91D48006820F0CF
:10141000070028431A4908600846006800F00700E2
:10142000A84201D0012079E7207800F004000428C8
:1014300007D11448406820F4E060E168084311498E
:101440004860207800F00800082808D10D4840685E
:1014500020F46050216940EAC1000A49486000F068
:101460003DF808494968C1F30311074A515CC84077
:10147000064908600F20FFF74FFE00204EE70000EE
:101480000020024000100240D4320008000000207A
:1014900001480068704700000000002000B5FFF719
:1014A000F7FF04494968C1F30221034A515CC8406F
:1014B00000BD000000100240E432000800B5FFF754
:1014C000E7FF04494968C1F3C221034A515CC8409F
:1014D00000BD000000100240E4320008F0B585B005
:1014E0000FF2700C9CE8E01001A8A0E8E0101DA528
:1014F0002D680095002100240022002300201A4DB1
:10150000696801F00C05FDB1042D02D0082D1AD137
:1015100001E016481AE001ADC1F38346AB5D01F46A
:1015200080355DB1104D6D68C5F340451DF805402F
:101530000E4DB5FBF4F505FB03F202E00C4D03FB89
:1015400005F2104602E000BF084800BF00BF05B02A
:10155000F0BD000002030405060708090A0B0C0D84
:101560000E0F1010010200000010024000127A005D
:1015700000093D00F8B504460025207800F0010080
:10158000002878D0F848406800F00C0004280CD0FF
:10159000F548406800F00C00082811D1F248406876
:1015A00000F48030B0F5803F0AD1EF48006800F4C5
:1015B000003000285FD0606800285CD10120F8BDB1
:1015C00000BF6068B0F5803F06D1E748006840F48E
:1015D0008030E549086028E0606858B9E248006852
:1015E00020F48030E04908600846006820F480203C
:1015F00008601AE06068B0F5A02F0BD1DA480068E7
:1016000040F48020D84908600846006840F48030E3
:1016100008600AE0D448006820F48030D2490860AD
:101620000846006820F48020086000BF606888B128
:10163000FFF750FD054606E0FFF74CFD401B642810
:1016400001D90320BBE7C848006800F40030002837
:10165000F2D010E0FFF73EFD054606E0FFF73AFD49
:10166000401B642801D90320A9E7BF48006800F4A3
:1016700000300028F2D1207800F00200022857D173
:10168000B948406800F00C0050B1B748406800F01D
:101690000C00082818D1B448406800F4803098B98C
:1016A000B148006800F0020020B12069012801D093
:1016B000012084E7AC48006820F0F800616940EA46
:1016C000C100A949086033E02069E8B10120A749B9
:1016D0000860FFF7FFFC054606E0FFF7FBFC401B38
:1016E000022801D903206AE79F48006800F0020041
:1016F0000028F2D09C48006820F0F800616940EAB8
:10170000C1009949086013E0002098490860FFF77C
:10171000E1FC054606E0FFF7DDFC401B022801D98D
:1017200003204CE79048006800F002000028F2D146
:10173000207800F0080008282DD1A069B8B1012058
:101740008B490860FFF7C6FC054606E0FFF7C2FCC0
:10175000401B022801D9032031E78348406A00F08A
:1017600002000028F2D0012000F0C6FE13E00020A5
:101770007F490860FFF7AEFC054606E0FFF7AAFCCC
:10178000401B022801D9032019E77748406A00F07E
:1017900002000028F2D1207800F00400042873D160
:1017A00000267148C06900F0805070B900BF6E48D3
:1017B000C06940F080506C49C8610846C06900F0BB
:1017C0008050009000BF00BF01266A48006800F406
:1017D0008070B0B96748006840F48070654908605F
:1017E000FFF778FC054606E0FFF774FC401B642811
:1017F00001D90320E3E65F48006800F48070002808
:10180000F2D000BFE068012806D15748006A40F0D6
:1018100001005549086227E0E06858B95248006A5B
:1018200020F00100504908620846006A20F00400D8
:10183000086219E0E06805280BD14B48006A40F0C7
:101840000400494908620846006A40F00100086245
:101850000AE04548006A20F0010043490862084652
:10186000006A20F00400086200BFE068A0B1FFF742
:1018700031FC054609E0FFF72DFC401B41F28831A1
:10188000884202D903209AE622E03748006A00F035
:1018900002000028EFD012E0FFF71CFC054608E02C
:1018A000FFF718FC401B41F28831884201D9032020
:1018B00085E62D48006A00F002000028F0D1012ED4
:1018C00005D12948C06920F080502749C86100BF70
:1018D000E069C8B32448406800F00C00082860D0D4
:1018E000E069022848D1002020490866FFF7F2FB92
:1018F000054606E0FFF7EEFB401B022801D9032056
:101900005DE61948006800F000700028F2D1206AF6
:10191000B0F5803F07D11448406820F40030A1683A
:10192000084311494860D4E9080108430E49496851
:1019300021F4741108430C49486001200B490866E2
:10194000FFF7C8FB054607E02DE0FFF7C3FB401B90
:10195000022801D9032032E60348006800F0007035
:101960000028F2D01FE000000010024000004242B8
:10197000800442420070004000200C490866FFF7D6
:10198000A9FB054606E0FFF7A5FB401B022801D98D
:10199000032014E60648006800F000700028F2D129
:1019A00001E001200BE6002009E6000000004242B1
:1019B00000100240042808D14FF0E021096941F0ED
:1019C00004014FF0E022116107E04FF0E0210969C6
:1019D00021F004014FF0E0221161704770B5044618
:1019E0002546681EB0F1807F01D301200FE0681EFC
:1019F0004FF0E02148610F214FF0FF3000F0F6FC7E
:101A000000204FF0E021886107200861002070BDB0
:101A1000704700002DE9F0470446206805682068FB
:101A2000C668206847694FF00008C14605F00F08F6
:101A3000B8F1000F0AD105F0200038B106F02000FF
:101A400020B1204601F058F8BDE8F087B8F1000F4A
:101A50006DD007F0010018B906F49070002866D028
:101A600005F0010030B106F4807018B1E06B40F071
:101A70000100E06305F0040030B107F0010018B187
:101A8000E06B40F00200E06305F0020030B107F0C7
:101A9000010018B1E06B40F00400E06305F00800BD
:101AA00030B107F0010018B1E06B40F00800E063CE
:101AB000E06B68B305F0200028B106F0200010B1FB
:101AC000204601F019F820684069C0F38019E06BE6
:101AD00000F0080010B9B9F1000F22D0204600F044
:101AE000EBFF2068406900F04000B0B12068406919
:101AF00020F0400021684861606B50B11748616B6D
:101B00004863606BFEF7D0FE10B1606B416B884795
:101B10000CE02046FFF77CFF08E02046FFF778FF47
:101B200004E02046FFF774FF0020E0638CE705F037
:101B3000800030B106F0800018B1204601F014F9A1
:101B400082E705F0400030B106F0400018B12046B1
:101B500000F0C2FF78E700BF76E70000A52A000882
:101B600010B504460CB9012010BDA06900B100E019
:101B700000BF94F8390028B9002084F838002046C6
:101B800000F028F8242084F839002068C06820F488
:101B900000502168C860204601F002F82068006902
:101BA00020F49040216808612068406920F02A00F4
:101BB000216848612068C06840F400502168C8600E
:101BC0000020E063202084F8390084F83A000020E7
:101BD000CAE7000010B586B004461849206888425C
:101BE00029D100BF1648806940F4804014498861BB
:101BF0000846806900F48040019000BF00BF48158E
:101C00000290022003900320059002A90D48FFF7DF
:101C1000BBF84FF48060029000200390049002A96A
:101C20000848FFF7B1F8002211462520FFF7E9FA2E
:101C30002520FFF7D9FA06B010BD0000003801409A
:101C400000100240000801402DE9F84304460D460B
:101C500016461F464FF0000994F83A00202860D13C
:101C600005B116B90120BDE8F88300BF94F838002B
:101C7000012801D10220F6E7012084F8380000BFD6
:101C80000020E063222084F83A00FFF723FA81461F
:101C9000A685E68539E0E08D401EE085A068B0F5B8
:101CA000805F1BD14B46002220212046009701F087
:101CB0008FF808B10320D6E7A846206938B9206814
:101CC0004068C0F30800A8F80000AD1C1DE02068C3
:101CD0004068C0B2A8F800006D1C16E04B46002218
:101CE00020212046009701F073F808B10320BAE7DD
:101CF000206920B92068406805F8010B05E02068DC
:101D0000406800F07F0005F8010BE08D0028C2D18B
:101D1000202084F83A0000BF002084F8380000BF7B
:101D2000A1E702209FE770472DE9F84304460D46DE
:101D300016461F464FF0000994F8390020285CD160
:101D400005B116B90120BDE8F88300BF94F838004A
:101D5000012801D10220F6E7012084F8380000BFF5
:101D60000020E063212084F83900FFF7B3F98146B1
:101D7000A684E6842BE0E08C401EE084A068B0F5E9
:101D8000805F16D14B46002280212046009701F04B
:101D90001FF808B10320D6E7A846B8F80000C0F342
:101DA000080021684860206908B9AD1C0FE06D1C6F
:101DB0000DE04B46002280212046009701F008F8F4
:101DC00008B10320BFE715F8010B21684860E08CDB
:101DD0000028D0D14B46002240212046009700F039
:101DE000F7FF08B10320AEE7202084F8390000BFD8
:101DF000002084F8380000BFA5E70220A3E7704761
:101E000000BFFEE7F0B5144A00250024002320E0BF
:101E1000B1FBF2F6303606F0FF0C2E466D1C00F8D2
:101E200006C0B1FBF2F602FB16110A26B2FBF6F26F
:101E30006E1E865D302E01D1012600E000260CB911
:101E4000012700E000273E400EB1002500E0641CA1
:101E50005B1C0A2BDCD3F0BD00CA9A3B08B500BF5F
:101E60003A48806940F00400384988610846806932
:101E700000F00400009000BF00BF00BF084680696A
:101E800040F0080088610846806900F00800009072
:101E900000BF00BF00BF0846806940F010008861A5
:101EA0000846806900F01000009000BF00BF00BF2E
:101EB0000846806940F0200088610846806900F08B
:101EC0002000009000BF00BF0223012211462048DD
:101ED00000F0E2FC0223012219461D4800F0DCFC60
:101EE0000223012204211A4800F0D6FC0223012219
:101EF0000821174800F0D0FC0223012210211448C9
:101F000000F0CAFC022301222021114800F0C4FC89
:101F10000223012240210E4800F0BEFC02230122D0
:101F200080210B4800F0B8FC01200949086102201B
:101F30000861042008610820086110200861202041
:101F40000861402008618020086108BD001002403F
:101F50000010014010B50C480C4908604FF4E13006
:101F60004860002109488160C16001610C21416124
:101F700000218161C161FFF7F3FD18B1242104A0A4
:101F800001F092F910BD0000003801403C0400202F
:101F90005379735C756172742E63000008B500207C
:101FA0000090484800F066FC474800F063FC474852
:101FB00000F060FC464800F05DFC444800F05AFC2C
:101FC000444800F057FC3F4800F054FC42A000F0A9
:101FD00051FCFEF7A3F94249086072E041A000F00D
:101FE00049FC50A000F046FC5EA000F043FC6DA050
:101FF00000F040FC3A48006818B17AA000F03AFCC2
:1020000002E088A000F036FC96A000F033FCA54862
:10201000006840684FF0FF3301226946A148FFF78E
:1020200013FE9DF80000312806D0322807D033284F
:1020300008D0342840D119E000F0E0FA40E000F088
:102040009DFB3DE098A000F015FCA0484068A04929
:102050000860084600689F4908609C49086880F34A
:10206000088800BF9B480068804729E01C4800683A
:10207000002810D00120FEF7A1F940B996A000F089
:10208000F9FB9DA000F0F6FBFEF7F6FD13E0A2A021
:1020900000F0F0FB0FE00020FEF790F940B9AAA095
:1020A00000F0E8FB94A000F0E5FBFEF7E5FD02E0A0
:1020B000ADA000F0DFFB03E0B6A000F0DBFB00BF4B
:1020C00000BF8BE7703400088C33000840330008F1
:1020D00024340008D83300080D0A0D0A000000005F
:1020E000100000200D0A3D3D3D3D3D3D3D3D3D3D47
:1020F0003D3D3D3D3D3D3D3D3D204D61696E204DA9
:10210000656E75203D3D3D3D3D3D3D3D3D3D3D3D8B
:102110003D3D3D3D3D3D3D3D3D3D3D3D3D3D3D3DEF
:102120000D0A0A002020446F776E6C6F616420698D
:102130006D61676520746F2074686520696E7465D1
:10214000726E616C20466C617368202D2D2D2D2DD3
:102150002D2D2D2D2D2D2D2D2D2D2D2D20310D0AFB
:102160000A000000202055706C6F616420696D6169
:1021700067652066726F6D2074686520696E74658E
:10218000726E616C20466C617368202D2D2D2D2D93
:102190002D2D2D2D2D2D2D2D2D2D2D2D20320D0ABA
:1021A0000A00000020204578656375746520746816
:1021B00065206C6F61646564206170706C69636137
:1021C00074696F6E202D2D2D2D2D2D2D2D2D2D2D46
:1021D0002D2D2D2D2D2D2D2D2D2D2D2D20330D0A79
:1021E0000A000000202044697361626C65207468F5
:1021F000652077726974652070726F7465637469A5
:102200006F6E202D2D2D2D2D2D2D2D2D2D2D2D2D88
:102210002D2D2D2D2D2D2D2D2D2D2D2D20340D0A37
:102220000A0000002020456E61626C6520746865BC
:102230002077726974652070726F74656374696F5A
:102240006E202D2D2D2D2D2D2D2D2D2D2D2D2D2D8A
:102250002D2D2D2D2D2D2D2D2D2D2D2D20340D0AF7
:102260000A0000003D3D3D3D3D3D3D3D3D3D3D3D88
:102270003D3D3D3D3D3D3D3D3D3D3D3D3D3D3D3D8E
:102280003D3D3D3D3D3D3D3D3D3D3D3D3D3D3D3D7E
:102290003D3D3D3D3D3D3D3D3D3D3D3D3D3D0D0AD1
:1022A0000A0000003C0400205374617274207072B4
:1022B0006F6772616D20657865637574696F6E2EE6
:1022C0002E2E2E2E2E0D0A0A00000000008000087F
:1022D0000C000020080000205772697465205072BD
:1022E0006F74656374696F6E2064697361626C6595
:1022F000642E2E2E0D0A000053797374656D2077BD
:10230000696C6C206E6F7720726573746172742EC5
:102310002E2E0D0A000000004572726F723A2046A0
:102320006C61736820777269746520756E2D7072A8
:102330006F74656374696F6E206661696C65642E85
:102340002E2E0D0A0000000057726974652050722D
:102350006F74656374696F6E20656E61626C65642D
:102360002E2E2E0D0A0000004572726F723A204622
:102370006C6173682077726974652070726F746520
:102380006374696F6E206661696C65642E2E2E0D14
:102390000A000000496E76616C6964204E756D62BA
:1023A00065722021203D3D3E20546865206E756D8C
:1023B0006265722073686F756C6420626520656960
:1023C0007468657220312C20322C2033206F7220EB
:1023D000340D000000BFFEE77047000002480068AF
:1023E000C0F30220704700000CED00E010B500289B
:1023F00007DA0A07140E054A00F00F031B1FD45416
:1024000003E00A07130E024A135410BD18ED00E052
:1024100000E400E070472DE9FE4305460F46904674
:102420000026012068700020A870FF20E8700024BA
:1024300003E0395D201D2954641C385D08B1402C2F
:10244000F7D30021201D295441466846FFF7DAFCE6
:10245000641D06E03046761C1DF800202046641CF2
:102460002A541DF806000028F4D1264602E0002078
:10247000A855761C842EFAD3BDE8FE83F0B5074636
:102480001446B3F5806F02D34FF4806C01E04FF037
:10249000800C6246934201D29C4600E09446664618
:1024A000B2F5806F04D14FF0020C81F801C003E057
:1024B0004FF0010C81F801C08C706FEA040C81F8B8
:1024C00003C03D46042004E015F801CB01F800C02C
:1024D000401C06F1040C6045F6D396420AD8301D24
:1024E00004E04FF01A0C01F800C0401C02F1040C8B
:1024F0006045F6D3F0BD000008B508490968C90871
:102500004FF47A72B1FBF2F14143009100BF00BF7A
:1025100000994A1E00920029F9D108BD0000002050
:102520002DE9F84304460E46904600250020306011
:102530004346012269462F48FFF786FB0746002FD6
:1025400053D19DF80000182812D006DC012809D0CC
:10255000022809D004281DD109E0412817D061289C
:1025600018D115E0802517E04FF4806514E013E0E2
:102570004346012269461F48FFF766FB28B99DF8CC
:102580000000182801D1022500E0012704E000BF67
:10259000022701E0012700BF00BF9DF80000207066
:1025A000802D22D3281D82B24346A11C1148FFF77B
:1025B0004BFB0746C7B9A078E17881F0FF0188425C
:1025C00002D00025012710E0281D205C4FEA0029D9
:1025D000681D205C81442946201DFDF761FE4845A9
:1025E00003D00025012700E0002535603846BDE80E
:1025F000F88300003C040020704700001FB5002055
:1026000001900290039000901AA000F033F9684600
:1026100000F038FC0446B4B9254800F02BF92548F1
:1026200000F028F901A80099FFF7ECFB22A000F0C8
:1026300021F901A800F01EF922A000F01BF924A046
:1026400000F018F914E0052C03D127A000F012F9CE
:102650000EE0042C03D134A000F00CF908E0022CA9
:1026600003D138A000F006F902E03CA000F002F926
:102670001FBD000057616974696E6720666F722024
:102680007468652066696C6520746F2062652073CC
:10269000656E74202E2E2E2028707265737320278D
:1026A000612720746F2061626F7274290A0D000027
:1026B000EC3200087C0400200A0D2053697A653A48
:1026C000200000002042797465730D0A00000000AC
:1026D0002D2D2D2D2D2D2D2D2D2D2D2D2D2D2D2D2A
:1026E0002D2D2D0A000000000A0A0D54686520698E
:1026F0006D6167652073697A652069732068696711
:10270000686572207468616E2074686520616C6C05
:102710006F776564207370616365206D656D6F729E
:1027200079210A0D000000000A0A0D5665726966DB
:1027300069636174696F6E206661696C6564210A02
:102740000D0000000D0A0A41626F72746564206218
:102750007920757365722E0A0D0000000A0D46611E
:10276000696C656420746F207265636569766520A5
:102770007468652066696C65210A0D0008B5002043
:10278000009010A000F076F84FF0FF330122694668
:102790001348FFF759FA9DF80000432810D14FF471
:1027A000405210A1154800F04FFC00909DF8000029
:1027B00018B113A000F05EF802E01CA000F05AF877
:1027C00008BD00000A0A0D53656C656374205265EC
:1027D00063656976652046696C650A0D0000000036
:1027E0003C04002055706C6F61646564466C6173D5
:1027F00068496D6167652E62696E0000008000089F
:102800000A0D4572726F72204F6363757272656450
:10281000207768696C65205472616E736D69747499
:10282000696E672046696C650A0D00000A0D4669ED
:102830006C652075706C6F6164656420737563638B
:1028400065737366756C6C79200A0D0001B50848D4
:1028500090F83900A02803D12020054981F83900DB
:102860006423012269460248FFF75EFA08BD0000B2
:102870003C04002070B50446002501E0681C85B2C8
:10288000605D0028FAD164232A4621460148FFF7FB
:102890004BFA70BD3C0400202DE9FF4107460C4671
:1028A00015461E46002221463846FEF70DFC0094D0
:1028B000019500200290039669463846FEF764FAB7
:1028C000BDE8FF8170B502460C46002100200023C0
:1028D0001578302D3ED15578782D02D05578582D69
:1028E00038D102212BE0555C412D02DB555C462D91
:1028F0000BDD555C612D02DB555C662D05DD555CFD
:10290000302D19DB555C392D16DC555C302D05DB7F
:10291000555C392D02DC555C303D0AE0555C412D9B
:1029200005DB555C462D02DC555C373D01E0555C0E
:10293000573D05EB031301E0002005E0491C0B297E
:1029400002D2555C002DCED100BF555C9DBB2360EB
:10295000012030E02AE0555C15B92360012024E015
:10296000555C6B2D02D0555C4B2D04D119B19B02E7
:102970002360012019E0555C6D2D02D0555C4D2D72
:1029800004D119B11B05236001200EE0555C302DE8
:1029900009DB555C392D06DC555C303D03EB8306C5
:1029A00005EB460301E0002004E0491C0B2901D29D
:1029B0000128D0D100BF70BD10B5FEF791FB10BD4E
:1029C00010B590B0012006900004079000200890F8
:1029D00001200A9002200D90C1030E914FF4E011E6
:1029E0000F9106A8FEF7C6FD18B1142114A000F03F
:1029F0005BFC0F20019002200290002003904FF416
:102A00008060049000200590022101A8FEF76EFC72
:102A100018B122210AA000F047FCFEF739FD4FF45F
:102A20007A71B0FBF1F42046FEF7D8FF0420FEF7E0
:102A3000C1FF00221146501EFEF7E3FB10B010BD8F
:102A40005379735C5379732E63000000114800685A
:102A500040F001000F490860084640680E490840F0
:102A60000C494860084600680C490840094908605C
:102A70000846006820F4802008600846406820F47A
:102A8000FE0048604FF41F008860C80304490860D6
:102A900070470000001002400000FFF8FFFFF6FE44
:102AA00008ED00E070B505466C6A0020E085E08422
:102AB0002046FEF7ADFF70BD0168C96821F4907132
:102AC0000268D1600168496921F001010268516121
:102AD000202180F83A10704710B504462068C0687D
:102AE00020F040002168C860202084F8390020468A
:102AF000FFF785F9002010BD70B5044694F83A0040
:102B000022284AD1A068B0F5805F13D1A56A206958
:102B100040B920684068C0F308002880A06A801C83
:102B2000A06219E020684068C0B22880A06A401CFA
:102B3000A06211E0206938B920684068C1B2A26A79
:102B4000501CA062117007E02068406800F07F010F
:102B5000A26A501CA0621170E08D401E80B2E08518
:102B6000C8B92068C06820F020002168C8602068CB
:102B7000C06820F480702168C8602068406920F037
:102B8000010021684861202084F83A002046FFF7C0
:102B9000CAF8002070BD0020FCE70220FAE7000020
:102BA0002DE9F041044600252068006920F44050DA
:102BB000E1680843216808612169A06808436169E8
:102BC000084305432068C06841F20C6188432843EC
:102BD0002168C8602068406920F44070A1690843FA
:102BE000216848615F49206888425CD1FEF766FC35
:102BF00000EBC00101EB001061688900B0FBF1F649
:102C0000FEF75CFC00EBC00101EB0010616889007D
:102C1000B0FBF1F06421B0FBF1F000EBC00101EB7F
:102C20000010A6EB8000322101EB00106421B0FB04
:102C3000F1F000F0F006FEF741FC00EBC00101EB03
:102C4000001061688900B0FBF1F06421B0FBF1F085
:102C500006EB0016FEF732FC00EBC00101EB0010A2
:102C600061688900B0FBF1F7FEF728FC00EBC001BA
:102C700001EB001061688900B0FBF1F06421B0FB4A
:102C8000F1F000EBC00101EB0010A7EB8000322156
:102C900001EB00106421B0FBF1F000F00F003044B4
:102CA000216888605BE0FEF7F9FB00EBC00101EBF7
:102CB000001061688900B0FBF1F6FEF7EFFB00EB56
:102CC000C00101EB001061688900B0FBF1F06421E4
:102CD000B0FBF1F000EBC00101EB0010A6EB8000AF
:102CE000322101EB00106421B0FBF1F000F0F0069E
:102CF000FEF7D4FB00EBC00101EB00106168890016
:102D0000B0FBF1F06421B0FBF1F006EB0016FEF72A
:102D1000C5FB00EBC00101EB001061688900B0FB4E
:102D2000F1F7FEF7BBFB00EBC00101EB001061689F
:102D30008900B0FBF1F06421B0FBF1F000EBC001C1
:102D400001EB0010A7EB8000322101EB00106421A1
:102D5000B0FBF1F000F00F00304421688860BDE85E
:102D6000F081000000380140014691F83900212827
:102D70002CD18868B0F5805F0FD10A6A1088C0F343
:102D800008000B685860086918B9086A801C086256
:102D900009E0086A401C086205E00B6A581C0862DA
:102DA00018780B685860C88C401E80B2C88458B927
:102DB0000868C06820F080000B68D8600868C068A8
:102DC00040F040000B68D860002070470220FCE70C
:102DD0002DE9F04104460D4617469846069E21E02F
:102DE000701CF8B12EB1FEF775F9A0EB0800B042E7
:102DF00018D92068C06820F4D0702168C8602068A5
:102E0000406920F0010021684861202084F83900E1
:102E100084F83A0000BF002084F8380000BF032087
:102E2000BDE8F081206800682840A84201D1012057
:102E300000E00020B842D3D00020F1E710B50248EE
:102E4000FEF7E8FD10BD00003C04002010B503466D
:102E50000C46194644F4807200BF4900520002F447
:102E6000807000B1491C01F4803010B141F22100A2
:102E7000414002F480300028EFD088B210BD00BF7E
:102E8000FEE700002DE9F04F8BB0064600200990C8
:102E9000814607908046DFF8A0A1C3E0002700200C
:102EA0000890B9E04FF47A720AA96448FFF738FB3A
:102EB00010B1022873D193E04FF000090A9838B19D
:102EC00002280BD10620FFF7C1FC4FF0020885E075
:102ED0000620FFF7BBFC012008907FE05748807870
:102EE000B84203D01520FFF7B1FC76E0002F57D190
:102EF0005248007900284BD00025504C241D05E095
:102F000014F8012B28466D1C4D490A54207808B14D
:102F1000402DF5D3002228466D1C49490A5400254E
:102F2000641C05E014F8012B28466D1C02A90A5404
:102F30002078202801D0102DF4D3002228466D1CC3
:102F400002A90A5406A902A8FFF7BCFC43F201013A
:102F50003068884210D9182001900B05012201A980
:102F60003848FEF7E1FE4FF48013012201A93548ED
:102F7000FEF7DAFE4FF005082F48FDF7ADF9069889
:102F800030600620FFF762FC4320FFF75FFC20E083
:102F90000620FFF75BFC0120089009901EE028E066
:102FA000DFF898B00BF1040B0A9882085946504696
:102FB000FDF7D8F928B90A9882440620FFF746FCA5
:102FC00007E01820FFF742FC1820FFF73FFC4FF006
:102FD0000408781CC7B20120079000BF00BF1AE0A8
:102FE0001820FFF733FC1820FFF730FC4FF00208E1
:102FF00011E0079808B109F10109B9F1050F06D9E7
:103000001820FFF723FC1820FFF720FC02E04320E4
:10301000FFF71CFC00BF00BF089818B9B8F1000FFB
:103020003FF440AF099818B9B8F1000F3FF436AF3C
:1030300040460BB0BDE8F08F00800008BC040020C3
:103040007C0400203C0400202DE9F74F82B00025CD
:10305000AB46A8460027012001909148DDE9031204
:10306000FFF7D9F93EE04FF4801383228C49491CC5
:103070008C48FEF759FE80218948001DFDF710F9A4
:103080000446200AFFF7E2FBE0B2FFF7DFFB4FF454
:103090008013012269468348FEF7D6FDF0B99DF8FA
:1030A0000000062802D14FF0010B18E09DF8000047
:1030B000182814D14FF48013012269467948FEF78D
:1030C000C3FD60B99DF80000182808D10220FDF763
:1030D000BFFC744800684068022700E06D1C052DA5
:1030E00000D30127BBF1000F01D1002FBBD0DDF8C9
:1030F0000890DDF8108052E00198C2B2434668495A
:103100004846FFF7BBF94FF0000B00208DF8000098
:1031100000253FE0B8F5806F02D34FF4806600E0F1
:103120008026F01C82B24FF480135D49491C5D4833
:10313000FEF7FAFD31465A48001DFDF7B1F8044686
:10314000200AFFF783FBE0B2FFF780FB4FF4801308
:10315000012269465348FEF777FDB8B99DF8000093
:10316000062813D14FF0010BB0450BD9B144A8EBA1
:10317000060801980C2801D1052708E00198401C99
:10318000019004E0B1444FF0000800E06D1C052DF3
:1031900000D30127BBF1000F01D1002FBAD0B8F145
:1031A000000F01D0002FA7D04FF0000B00208DF8AA
:1031B000000000252DE00420FFF748FB4FF48013AA
:1031C000012269463748FEF73FFDF0B99DF800003F
:1031D000062802D14FF0010B18E09DF800001828D6
:1031E00014D14FF48013012269462E48FEF72CFDBE
:1031F00060B99DF80000182808D10220FDF728FCCE
:10320000284800684068022700E06D1C052D00D3A7
:103210000127BBF1000F01D1002FCCD0DFBB012073
:103220001F49487000208870FF20C8704FF0040AC2
:1032300007E000201A4901F80A000AF1010000F035
:10324000FF0ABAF1840FF4D34FF480138322144998
:10325000491C1448FEF768FD80211148001DFDF748
:103260001FF80446200AFFF7F1FAE0B2FFF7EEFA82
:103270004FF48013012269460A48FEF7E5FC50B975
:103280009DF80000182806D10220FDF7E1FB054853
:10329000006840680227384605B0BDE8F08F00009E
:1032A000BC0400203C04002000BFFEE700BF7047C4
:1032B00010B5FEF773FE10BDFDF71AFFFFF780FB98
:1032C000FEF7CCFDFEF746FEFDF73EF801E0FFF706
:1032D000EFFFFCE700000000000000000102030413
:1032E0000607080900000000010203040A0A0D2075
:1032F00050726F6772616D6D696E6720436F6D709C
:103300006C65746564205375636365737366756C6F
:103310006C79210A0D2D2D2D2D2D2D2D2D2D2D2DA1
:103320002D2D2D2D2D2D2D2D2D2D2D2D2D2D2D2DCD
:103330002D2D2D2D2D0D0A204E616D653A2000009A
:103340000D0A3D2020202020202020202020202089
:10335000202020202020202020202020202020206D
:10336000202020202020202020202020202020205D
:10337000202020202020202020202020202020204D
:10338000202020202020203D000000000D0A3D20AC
:1033900020202020202020202020202020284329F9
:1033A00020434F505952494748542032303135203C
:1033B00053544D6963726F656C656374726F6E69A7
:1033C0006373202020202020202020202020202067
:1033D0002020203D000000000D0A3D20202020205C
:1033E00020202020202020202020202020202020DD
:1033F0002020202020202020202020202020427952
:10340000204D4344204170706C69636174696F6E34
:10341000205465616D202020202020202020203D88
:10342000000000000D0A3D202053544D3332463138
:10343000787820496E2D4170706C69636174696F92
:103440006E2050726F6772616D6D696E672041709A
:10345000706C69636174696F6E20202856657273A1
:10346000696F6E20312E302E3029203D0000000083
:103470000D0A3D3D3D3D3D3D3D3D3D3D3D3D3D3DDF
:103480003D3D3D3D3D3D3D3D3D3D3D3D3D3D3D3D6C
:103490003D3D3D3D3D3D3D3D3D3D3D3D3D3D3D3D5C
:1034A0003D3D3D3D3D3D3D3D3D3D3D3D3D3D3D3D4C
:1034B0003D3D3D3D3D3D3D3D00000000DC3400080C
:1034C00000000020140000006C010008F034000827
:1034D00014000020140F00008801000800A24A0414
:1034E00000000000000000000000000000000000DC
:0400000508000131BD
:00000001FF
