:020000040800F2
:10800000B00A0020CD810008D5810008B3820008A5
:10801000D9810008DB810008DD8100080000000034
:10802000000000000000000000000000DF810008E8
:10803000E1810008000000003B8200086D93000809
:10804000E7810008E7810008E7810008E781000870
:10805000E7810008E7810008E7810008E781000860
:10806000E7810008E7810008E7810008E781000850
:10807000E7810008E7810008E7810008E781000840
:10808000E7810008E7810008E7810008E781000830
:10809000E7810008E7810008E7810008E781000820
:1080A000E7810008E7810008E7810008E781000810
:1080B000E7810008E7810008E7810008E781000800
:1080C000E7810008E7810008E7810008E7810008F0
:1080D000E7810008E7810008E7810008E7810008E0
:1080E000E7810008E7810008E7810008E7810008D0
:1080F000E7810008E7810008E7810008E7810008C0
:10810000E7810008E7810008E7810008E7810008AF
:10811000E7810008E7810008E7810008E78100089F
:10812000E7810008E7810008E7810008E78100088F
:1081300000F002F800F03AF80AA090E8000C82443F
:108140008344AAF10107DA4501D100F02FF8AFF21C
:10815000090EBAE80F0013F0010F18BFFB1A43F025
:10816000010318471C3400003C340000103A24BFBF
:1081700078C878C1FAD8520724BF30C830C144BF8C
:1081800004680C60704700000023002400250026CE
:10819000103A28BF78C1FBD8520728BF30C148BF6A
:1081A0000B6070471FB51FBD10B510BD00F0ABF8D8
:1081B0001146FFF7F7FF00F0D9F800F0C9F803B453
:1081C000FFF7F2FF03BC01F021FB000009488047E4
:1081D00009480047FEE7FEE7FEE7FEE7FEE7FEE7A9
:1081E000FEE7FEE7FEE7FEE704480549054A064BC1
:1081F000704700002594000831810008B004002079
:10820000B00A0020B0060020B0060020EFF3108076
:1082100072B6704780F310887047334A1368012B99
:1082200004D04FF001031360304A1060304A1160EF
:1082300030484FF0805101607047EFF3108272B602
:108240002948016891B14FF0000101602748016899
:1082500029B1EFF3098121E9F00F00680160244999
:1082600009680968B1E8F00F81F3098882F3108882
:108270004EF0040E70471E4908601C494FF0000084
:10828000086019494FF0010008601B484FF47F0156
:10829000D0F8002041EA0201016016484FF08051F9
:1082A000016016480068006880F3088861B662B60D
:1082B00070471EF0040F0CBFEFF30880EFF3098046
:1082C00020E9F00F40F804ED1EF0040F0CBF80F31E
:1082D000088880F3098800B501F0F6FD5DF804EB2D
:1082E0004EF0040E70470000CC000020C4000020B7
:1082F000C800002004ED00E020ED00E008ED00E003
:10830000704770477047754600F02CF8AE46050080
:108310006946534620F00700854618B020B5FFF7A0
:1083200063FFBDE820404FF000064FF000074FF01C
:1083300000084FF0000B21F00701AC46ACE8C00983
:10834000ACE8C009ACE8C009ACE8C0098D4670478C
:1083500010B50446AFF300802046BDE81040FFF79B
:108360002EBF0000004870474C04002010B5FFF7F6
:108370004DFF02F0FBFF002010BD01B5009901EB9D
:108380008101480001F094FA08BD00002DE9F8478A
:1083900002460024002000258446002700237BE1BC
:1083A0004FF0010808FA03F4D1F8008008EA04004D
:1083B000A0427DD1DFF8ECA2D1F80480A8EB0A0935
:1083C000D0453AD014DCB8F1030F50D009DCB8F135
:1083D000000F31D0B8F1010F1CD0B8F1020F49D114
:1083E00020E0B8F1110F18D0B8F1120F42D11EE001
:1083F000B9F5881F25D006DCB9F5803F20D0B9F546
:10840000801F37D11AE0B9F5001F18D0B9F5041F45
:1084100030D117E0D1F80CC02DE0D1F80C8008F174
:10842000040C28E0D1F80C8008F1080C23E0D1F806
:108430000C8008F10C0C1EE000BF00BF00BF00BFA5
:1084400000BF00BFD1F80880B8F1000F02D14FF093
:10845000040C0BE0D1F80880B8F1010F03D14FF004
:10846000080C146102E04FF0080C546103E04FF077
:10847000000C00E000BF00BFFF2801D8904601E0DB
:1084800002F104084646FF2802D84FEA830803E0B9
:10849000A3F108084FEA88084746D6F800804FF055
:1084A0000F0909FA07F928EA09080CFA07F900E0A8
:1084B0007AE048EA0908C6F80080D1F8048008F09C
:1084C0008058B8F1805F6FD100BFDFF8DC81D8F849
:1084D000188048F00108DFF8D091C9F81880C84624
:1084E000D8F8188008F00108CDF8008000BF00BF60
:1084F0004FEAB9384FEA930958F829504FEA837880
:108500004FEA18794FF00F0808FA09F825EA08052C
:10851000DFF89881424502D14FF0000824E0DFF8EF
:108520009081424502D14FF001081DE0DFF88481BF
:10853000424502D14FF0020816E0DFF87C81424547
:1085400002D14FF003080FE0DFF87081424502D1FD
:108550004FF0040808E0DFF86881424502D14FF08F
:10856000050801E04FF006084FEA83794FEA1979D0
:1085700008FA09F848EA0505DFF848814FEA930947
:1085800048F82950D1F8048008F48038B8F5803FC5
:108590000BD1DFF83481D8F8008048EA0008DFF812
:1085A0002891C9F800800AE075E0DFF81C81D8F84E
:1085B000008028EA0008DFF81091C9F80080D1F89F
:1085C000048008F40038B8F5003F0ED1DFF8F880D9
:1085D00008F10408D8F8008048EA0008DFF8E890BD
:1085E00009F10409C9F800800DE0DFF8DC8008F12A
:1085F0000408D8F8008028EA0008DFF8CC9009F1D8
:108600000409C9F80080D1F8048008F48018B8F58E
:10861000801F0ED1DFF8B08008F10808D8F800807C
:1086200048EA0008DFF8A09009F10809C9F80080BD
:108630000DE0DFF8948008F10808D8F8008028EAF7
:108640000008DFF8849009F10809C9F80080D1F822
:10865000048008F40018B8F5001F0ED1DFF8688018
:1086600008F10C08D8F8008048EA0008DFF85890B4
:1086700009F10C09C9F800800DE0DFF84C8008F121
:108680000C08D8F8008028EA0008DFF83C9009F1CF
:108690000C09C9F800805B1C102BFFF481AEBDE80B
:1086A000F88700000000111000100240000801408F
:1086B000000C01400010014000140140001801406E
:1086C000001C014008000140000401400AB10161A2
:1086D00001E00B040361704710B50120FFF74DFE68
:1086E00003480068401C024908600846006810BD45
:1086F0000400002002480068401C014908607047DF
:108700000400002010B50848006840F01000064939
:108710000860032000F0BEF80F2000F007F800F01A
:1087200019F8002010BD00000020024070B504467A
:10873000074800684FF47A71B0FBF1F5284600F065
:1087400035FC00222146501E00F065F8002070BD67
:108750000000002008B500BF2648806940F00100F5
:10876000244988610846806900F00100009000BF3C
:1087700000BF032000F08EF8002211466FF00B00BE
:1087800000F049F8002211466FF00A0000F043F8AB
:10879000002211466FF0090000F03DF8002211465A
:1087A000501F00F038F800221146101F00F033F877
:1087B00000220F21901E00F02EF800220F21501EE3
:1087C00000F029F800BF0C48406820F0E0600A493A
:1087D00048600846406840F08060486000BF00BFC5
:1087E0000846406820F0E0604860084640684860FD
:1087F00000BF08BD001002400000014000BF00F0B3
:108800001F02012191404209920002F1E022C2F8C8
:10881000001100BF70472DE9F05F80460D461646F7
:10882000002700F05DFD074639462A46334601F031
:108830000700C0F1070ABAF1040F02D94FF0040A89
:1088400001E0C0F1070AD14600F1040ABAF1070FAE
:1088500002D24FF0000A01E0A0F1030AD4464FF023
:10886000010A0AFA09FAAAF1010A0AEA020A0AFA4C
:108870000CFA4FF0010B0BFA0CFBABF1010B0BEAFE
:10888000030B4AEA0B042146404600F031FDBDE8E7
:10889000F09F000000BF00F00702064B19684FF67A
:1088A000FF031940044B0B4343EA0221014B1960BB
:1088B00000BF70470CED00E00000FA0570B50446FB
:1088C0000D4600266248006800F00700A8420ED25C
:1088D0005F48006820F0070028435D4908600846AB
:1088E000006800F00700A84201D0012070BD207888
:1088F00000F00200022807D15648406820F0F0003E
:10890000A168084353494860207800F0010000281E
:108910005DD06068012806D14E48006800F4003040
:1089200090B90120E2E76068022806D14948006852
:1089300000F0007040B90120D8E74648006800F018
:10894000020008B90120D1E74248406820F0030046
:10895000616808433F494860FFF7BEFE064660680D
:10896000012810D108E0FFF7B7FE801B41F28831E3
:10897000884201D90320B9E73648406800F00C006E
:108980000428F0D123E06068022810D108E0FFF746
:10899000A3FE801B41F28831884201D90320A5E75C
:1089A0002C48406800F00C000828F0D10FE008E0E7
:1089B000FFF792FE801B41F28831884201D90320E3
:1089C00094E72448406800F00C000028F0D12048CB
:1089D000006800F00700A8420ED91D48006820F08A
:1089E000070028431A4908600846006800F007009D
:1089F000A84201D0012079E7207800F00400042883
:108A000007D11448406820F4E060E1680843114948
:108A10004860207800F00800082808D10D48406818
:108A200020F46050216940EAC1000A49486000F022
:108A30003DF808494968C1F30311074A515CC84031
:108A4000064908600F20FFF771FE00204EE7000086
:108A5000002002400010024030B400080000002056
:108A600001480068704700000000002000B5FFF7D3
:108A7000F7FF04494968C1F30221034A515CC84029
:108A800000BD00000010024040B4000800B5FFF730
:108A9000E7FF04494968C1F3C221034A515CC84059
:108AA00000BD00000010024040B40008F0B585B0E1
:108AB0000FF2700C9CE8E01001A8A0E8E0101DA5E2
:108AC0002D680095002100240022002300201A4D6B
:108AD000696801F00C05FDB1042D02D0082D1AD1F2
:108AE00001E016481AE001ADC1F38346AB5D01F425
:108AF00080355DB1104D6D68C5F340451DF80540EA
:108B00000E4DB5FBF4F505FB03F202E00C4D03FB43
:108B100005F2104602E000BF084800BF00BF05B0E4
:108B2000F0BD000002030405060708090A0B0C0D3E
:108B30000E0F1010010200000010024000127A0017
:108B400000093D00F8B504460025207800F001003A
:108B5000002878D0F848406800F00C0004280CD0B9
:108B6000F548406800F00C00082811D1F248406830
:108B700000F48030B0F5803F0AD1EF48006800F47F
:108B8000003000285FD0606800285CD10120F8BD6B
:108B900000BF6068B0F5803F06D1E748006840F448
:108BA0008030E549086028E0606858B9E24800680C
:108BB00020F48030E04908600846006820F48020F6
:108BC00008601AE06068B0F5A02F0BD1DA480068A1
:108BD00040F48020D84908600846006840F480309E
:108BE00008600AE0D448006820F48030D249086068
:108BF0000846006820F48020086000BF606888B1E3
:108C0000FFF76AFD054606E0FFF766FD401B642896
:108C100001D90320BBE7C848006800F400300028F1
:108C2000F2D010E0FFF758FD054606E0FFF754FDCF
:108C3000401B642801D90320A9E7BF48006800F45D
:108C400000300028F2D1207800F00200022857D12D
:108C5000B948406800F00C0050B1B748406800F0D7
:108C60000C00082818D1B448406800F4803098B946
:108C7000B148006800F0020020B12069012801D04D
:108C8000012084E7AC48006820F0F800616940EA00
:108C9000C100A949086033E02069E8B10120A74973
:108CA0000860FFF719FD054606E0FFF715FD401BBC
:108CB000022801D903206AE79F48006800F00200FB
:108CC0000028F2D09C48006820F0F800616940EA72
:108CD000C1009949086013E0002098490860FFF737
:108CE000FBFC054606E0FFF7F7FC401B022801D914
:108CF00003204CE79048006800F002000028F2D101
:108D0000207800F0080008282DD1A069B8B1012012
:108D10008B490860FFF7E0FC054606E0FFF7DCFC46
:108D2000401B022801D9032031E78348406A00F044
:108D300002000028F2D0012000F0EEFA13E000203B
:108D40007F490860FFF7C8FC054606E0FFF7C4FC52
:108D5000401B022801D9032019E77748406A00F038
:108D600002000028F2D1207800F00400042873D11A
:108D700000267148C06900F0805070B900BF6E488D
:108D8000C06940F080506C49C8610846C06900F075
:108D90008050009000BF00BF01266A48006800F4C0
:108DA0008070B0B96748006840F480706549086019
:108DB000FFF792FC054606E0FFF78EFC401B642897
:108DC00001D90320E3E65F48006800F480700028C2
:108DD000F2D000BFE068012806D15748006A40F091
:108DE00001005549086227E0E06858B95248006A16
:108DF00020F00100504908620846006A20F0040093
:108E0000086219E0E06805280BD14B48006A40F081
:108E10000400494908620846006A40F001000862FF
:108E20000AE04548006A20F001004349086208460C
:108E3000006A20F00400086200BFE068A0B1FFF7FC
:108E40004BFC054609E0FFF747FC401B41F2883127
:108E5000884202D903209AE622E03748006A00F0EF
:108E600002000028EFD012E0FFF736FC054608E0CC
:108E7000FFF732FC401B41F28831884201D90320C0
:108E800085E62D48006A00F002000028F0D1012E8E
:108E900005D12948C06920F080502749C86100BF2A
:108EA000E069C8B32448406800F00C00082860D08E
:108EB000E069022848D1002020490866FFF70CFC31
:108EC000054606E0FFF708FC401B022801D90320F5
:108ED0005DE61948006800F000700028F2D1206AB1
:108EE000B0F5803F07D11448406820F40030A168F5
:108EF000084311494860D4E9080108430E4949680C
:108F000021F4741108430C49486001200B4908669C
:108F1000FFF7E2FB054607E02DE0FFF7DDFB401B16
:108F2000022801D9032032E60348006800F00070EF
:108F30000028F2D01FE00000001002400000424272
:108F4000800442420070004000200C490866FFF790
:108F5000C3FB054606E0FFF7BFFB401B022801D913
:108F6000032014E60648006800F000700028F2D1E3
:108F700001E001200BE6002009E60000000042426B
:108F800000100240042808D14FF0E021096941F0A7
:108F900004014FF0E022116107E04FF0E021096980
:108FA00021F004014FF0E0221161704770B50446D2
:108FB0002546681EB0F1807F01D301200FE0681EB6
:108FC0004FF0E02148610F214FF0FF3000F090F9A1
:108FD00000204FF0E021886107200861002070BD6B
:108FE00010B504460CB9012010BDA06900B100E025
:108FF00000BF94F8390028B9002084F838002046D2
:1090000000F028F8242084F839002068C06820F493
:1090100000502168C860204600F032FA20680069DC
:1090200020F49040216808612068406920F02A00FF
:10903000216848612068C06840F400502168C86019
:109040000020E063202084F8390084F83A000020F2
:10905000CAE7000010B586B0044618492068884267
:1090600029D100BF1648806940F4804014498861C6
:109070000846806900F48040019000BF00BF481599
:109080000290022003900320059002A90D48FFF7EB
:109090007DF94FF48060029000200390049002A9B3
:1090A0000848FFF773F9002211462520FFF7B3FBAC
:1090B0002520FFF7A3FB06B010BD000000380140DB
:1090C00000100240000801402DE9F84304460D4617
:1090D00016461F464FF0000994F8390020285CD14D
:1090E00005B116B90120BDE8F88300BF94F8380037
:1090F000012801D10220F6E7012084F8380000BFE2
:109100000020E063212084F83900FFF7E5FA81466A
:10911000A684E6842BE0E08C401EE084A068B0F5D5
:10912000805F16D14B46002280212046009700F038
:109130008BFA08B10320D6E7A846B8F80000C0F3C0
:10914000080021684860206908B9AD1C0FE06D1C5B
:109150000DE04B46002280212046009700F074FA73
:1091600008B10320BFE715F8010B21684860E08CC7
:109170000028D0D14B46002240212046009700F025
:1091800063FA08B10320AEE7202084F8390000BF5D
:10919000002084F8380000BFA5E70220A3E7000004
:1091A00008B500BF3A48806940F00400384988613A
:1091B0000846806900F00400009000BF00BF00BFB7
:1091C0000846806940F0080088610846806900F020
:1091D0000800009000BF00BF00BF0846806940F053
:1091E000100088610846806900F01000009000BF00
:1091F00000BF00BF0846806940F020008861084633
:10920000806900F02000009000BF00BF022301220F
:109210001146204800F094F80223012219461D4807
:1092200000F08EF80223012204211A4800F088F889
:10923000022301220821174800F082F802230122AC
:109240001021144800F07CF802230122202111484B
:1092500000F076F80223012240210E4800F070F859
:109260000223012280210B4800F06AF801200949FD
:1092700008610220086104200861082008611020AC
:10928000086120200861402008618020086108BD35
:10929000001002400010014010B50C480C49086055
:1092A0004FF4E1304860002109488160C1600161EC
:1092B0000C21416100218161C161FFF791FE18B16C
:1092C000212104A000F0F6F910BD00000038014093
:1092D000DC0000205379735C756172742E630000AA
:1092E00002480068C0F30220704700000CED00E067
:1092F00010B5002807DA0A07140E054A00F00F031C
:109300001B1FD45403E00A07130E024A135410BD66
:1093100018ED00E000E400E008B508490968C90854
:109320004FF47A72B1FBF2F14143009100BF00BFEC
:1093300000994A1E00920029F9D108BD00000020C2
:109340002DE9FF4107460C4615461E4600222146E0
:109350003846FFF7BBF90094019500200290039670
:1093600069463846FFF712F8BDE8FF8110B500F0F6
:10937000D1FEFFF7BFF901F02FFD00F0E1FE10BDB7
:1093800030B58FB000240120059000040690002025
:1093900007900120099002200C90C1030D914FF419
:1093A000E0110E9105A8FFF7CDFB0446032C15D163
:1093B0002822002105A801F03FF802200590012095
:1093C000099010200A9002200C9000210D914FF47A
:1093D00060110E9105A8FFF7B5FB04460F20009021
:1093E00002200190002002904FF480600390002042
:1093F000049002216846FFF761FA0446FFF730FB4C
:109400004FF47A71B0FBF1F52846FFF7CFFD042049
:10941000FFF7B8FD00220F21501EFFF7FCF90FB037
:1094200030BD00001148006840F001000F4908609D
:10943000084640680E4908400C49486008460068E4
:109440000C490840094908600846006820F480205B
:1094500008600846406820F4FE0048604FF41F0092
:109460008860054805490860704700000010024008
:109470000000FFF8FFFFF6FE0080000808ED00E0A6
:109480002DE9F041044600252068006920F4405091
:10949000E1680843216808612169A068084361699F
:1094A000084305432068C06841F20C6188432843A3
:1094B0002168C8602068406920F44070A1690843B1
:1094C000216848615F49206888425CD1FFF7DEFA75
:1094D00000EBC00101EB001061688900B0FBF1F600
:1094E000FFF7D4FA00EBC00101EB001061688900BE
:1094F000B0FBF1F06421B0FBF1F000EBC00101EB37
:109500000010A6EB8000322101EB00106421B0FBBB
:10951000F1F000F0F006FFF7B9FA00EBC00101EB43
:10952000001061688900B0FBF1F06421B0FBF1F03C
:1095300006EB0016FFF7AAFA00EBC00101EB0010E2
:1095400061688900B0FBF1F7FFF7A0FA00EBC001FA
:1095500001EB001061688900B0FBF1F06421B0FB01
:10956000F1F000EBC00101EB0010A7EB800032210D
:1095700001EB00106421B0FBF1F000F00F0030446B
:10958000216888605BE0FFF771FA00EBC00101EB36
:10959000001061688900B0FBF1F6FFF767FA00EB95
:1095A000C00101EB001061688900B0FBF1F064219B
:1095B000B0FBF1F000EBC00101EB0010A6EB800066
:1095C000322101EB00106421B0FBF1F000F0F00655
:1095D000FFF74CFA00EBC00101EB00106168890055
:1095E000B0FBF1F06421B0FBF1F006EB0016FFF7E1
:1095F0003DFA00EBC00101EB001061688900B0FB8F
:10960000F1F7FFF733FA00EBC00101EB00106168DE
:109610008900B0FBF1F06421B0FBF1F000EBC00178
:1096200001EB0010A7EB8000322101EB0010642158
:10963000B0FBF1F000F00F00304421688860BDE815
:10964000F0810000003801402DE9F04104460D464C
:1096500017469846069E21E0701CF8B12EB1FFF720
:109660003BF8A0EB0800B04218D92068C06820F48D
:10967000D0702168C8602068406920F0010021682E
:109680004861202084F8390084F83A0000BF0020A7
:1096900084F8380000BF0320BDE8F081206800682E
:1096A0002840A84201D1012000E00020B842D3D0D8
:1096B0000020F1E700BFFEE7014609B9002070472E
:1096C000C8B220B1C8B20E4A105C401CF7E701F4E2
:1096D0007F4028B10A48C1F30722805C0930EEE7D9
:1096E00001F47F0028B10648C1F30742805C1130C5
:1096F000E5E7034800EB116000781930DFE7000070
:1097000048B4000803490868884201D00120704726
:109710000020FCE7B00000202DE9FC5F04468B46EA
:1097200015461E46DDE90C9ADDE90E7804F11400B9
:109730004060006000BF1C346560A660C4F80C90F7
:10974000C4F810A02321D4E9030200F075FED4E987
:10975000033C63441A1F0F4BD4E9010100F0B4FC31
:109760002060A77667760020E061C4F82880C4F8FE
:109770002C8060612076E06520661C3C00902346CA
:10978000054A2146019004F14C0001F0A7FB00209E
:10979000BDE8FC9FDDAA000849AD00082DE9F047AF
:1097A00004460E4617469846DDF8209084F8099046
:1097B000607A20F001006072E66127620020A062FA
:1097C000C4F82480002506E004F1140101EBC50073
:1097D00000F03BFD6D1C012DF6DBBDE8F08710B5F8
:1097E0000246002001460EE002F1140303EBC10023
:1097F000D0E900436360D0E900342360406000603A
:1098000000BF481C01460129EEDB10BD00BF7047B8
:1098100000241BE0601CC4B2142C03DB0C4800685D
:1098200001F070FA322C04DB00240948006801F0D2
:109830000DFA0848C06880F001000649C86021465A
:1098400005A000F0CBFC642001F041F9E2E7000044
:10985000D8000020001001406C6564315F746872AC
:109860006561642072756E6E696E67203D202530DB
:1098700034640D0A000000000BE00648C06880F068
:1098800002000449C86004A000F0A8FCC82001F050
:109890001EF9F2E7001001406C6564325F74687273
:1098A0006561642072756E6E696E670D0A00000056
:1098B00008B508490968C908074AB1FBF2F14143F4
:1098C000009100BF00BF00994A1E00920029F9D103
:1098D00008BD00000000002040420F00002070473B
:1098E00010B5044600F032F9FFF7F8FF10BD000094
:1098F00030B51A4C436824681919884215D04B8832
:109900009BB9174B1B6899420FD0164B1B688B42B3
:1099100001D1144B18604B684360104B1B68C31A8D
:109920000E4D4C682D682C44A3600C4C8368246851
:109930001A19824211D053887BB90A4B1B688342A3
:1099400001D1084B1A6043685360044B1B68D31A5B
:10995000024D44682D682C44A36030BD18000020DF
:109960001C000020200000202DE9F04F86B00D469D
:109970009C46DDE9106401960F9B04F04008B8F1A5
:10998000000F02D0DFF8708101E0DFF87081CDF8C0
:10999000008004F01008B8F1000F01D024F0010499
:1099A00004F00108B8F1000F02D04FF0300801E0D8
:1099B0004FF02008C246002704F00208B8F1000F5B
:1099C00011D0002A02DA2D2752420CE004F00408DC
:1099D000B8F1000F01D02B2705E004F00808B8F11A
:1099E000000F00D02027002142B94FF0300B8846ED
:1099F000491C0DF1080909F808B01DE01AE0E1461C
:109A0000B9F10A0F08D14FF00A0BB2FBFBFE0BFBBA
:109A10001E28B2FBFBF202E002F00F08120900BFA1
:109A2000DDF8009019F808B08846491C0DF10809C6
:109A300009F808B0002AE2D1B14200DD0E469B1BB6
:109A400004F01108B8F1000F10D117B1002B00DDA0
:109A50005B1E06E0A84203D84FF0200880F8008083
:109A6000401CB3F10008A3F10103F3DC27B1A842C5
:109A700001D807705B1E401C04F01008B8F1000FFD
:109A80000AD104E0A84201D880F800A0401CB3F13C
:109A90000008A3F10103F5DC06E0A84203D84FF06B
:109AA000300880F80080401CB046761E8845F4DC03
:109AB00008E0A84205D80DF1080818F8018080F8E0
:109AC0000080401CB1F10008A1F1010104DDDDF8C6
:109AD0000480B8F1000FECD106E0A84203D84FF0A3
:109AE000200880F80080401CB3F10008A3F10103B6
:109AF000F3DC06B0BDE8F08F59B5000848B50008A2
:109B00001CB514200A214FF480630022CDE9001017
:109B1000044905A000F0B3FF0446204601F0DCF83C
:109B20001CBD0000E19800086D61696E0000000036
:109B300010B5044C02E020688047241D024884428E
:109B4000F9D310BD70B5000874B5000810B5044C09
:109B500002E020688047241D02488442F9D310BDEA
:109B600074B500087CB5000870B505460A4806685B
:109B7000284600F02EF8044664B10748006818B182
:109B80000548006800F00AF84321204600F04AF832
:109B900001480460304670BD1400002070B50446D2
:109BA0000025A07E08B9681E70BDA07E401EA0766C
:109BB000A07E08B10020F7E7E06A18B12046E16A0C
:109BC000884705460DB1A81D08B900202083284606
:109BD000EAE72DE9F041064601F056F808B100F039
:109BE0009BF8082000F098FC05466C6810E0A4F192
:109BF0000C0708223146384600F049FE38B901F01A
:109C000043F808B100F098F83846BDE8F0812468C0
:109C1000281D8442EBD101F037F808B100F08CF830
:109C20000020F2E770B504460E460025A07D00F046
:109C3000100088B9606A58B12046616A88470546B5
:109C400035B12A46214616A000F0C8FA284670BD54
:109C5000E08A40F01000E082A07D00F0080030B102
:109C6000207E00F0080010B16FF00600EFE7A06A58
:109C700028B131462046A26A9047054603E040F6E7
:109C80000F70304020830DB1A81D30B9208B40F0FB
:109C900008002083A07E401CA0762846D7E700005D
:109CA000546F20696E697469616C697A65206465B6
:109CB000766963653A2573206661696C65642E2058
:109CC000546865206572726F7220636F64652069E5
:109CD000732025640A0000002DE9F04104460D467A
:109CE00016461F46A07E30B94FF0FF3000F05AFDF7
:109CF0000020BDE8F081606B38B13B463246294612
:109D00002046D4F834C0E047F3E76FF0050000F0D8
:109D100049FD0020EDE7000010B5FEF777FA044694
:109D200004480088401C00B2024908802046FEF723
:109D300071FA10BDA000002010B5FEF767FA0446C6
:109D40000B480088401E00B2094908800846B0F957
:109D50000000002807DC002008802046FEF75AFAA1
:109D600000F016FC02E02046FEF754FA10BD000099
:109D7000A000002070B5054605B970BD1D480068FB
:109D8000854203D31C480068854200D3F5E7A5F15E
:109D90000C044FF0FF31194800F0CAFC608818B17C
:109DA0002088B0F5F55F08D015A000F017FA2388D9
:109DB0006288214619A000F011FA002060804FF45B
:109DC000F550208021480068844201D21F48046079
:109DD000084960680968611A401A1D490968081A2B
:109DE0001B4908602046FFF783FD044800F07DFC16
:109DF00000BFC2E7180000201C0000202C03002038
:109E0000746F206672656520612062616420646100
:109E1000746120626C6F636B3A0A00006D656D3A85
:109E2000203078253038782C207573656420666C76
:109E300061673A2025642C206D6167696320636F38
:109E400064653A203078253034780A0020000020FC
:109E50002800002010B5FEF755FCFFF791FAFFF738
:109E60009FF9FFF719FA0549054800F03FFDFFF794
:109E70005FFE04A0FFF778FE10BD00000080002008
:109E8000B00A0020756172743100000010B50446FC
:109E9000FFF742FF0FE020780A2805D10F230122A7
:109EA0000D210848FFF710F92146641C0F230122F9
:109EB0000448FFF709F920780028ECD1FFF73CFFB0
:109EC00010BD0000DC00002070B505462C1D2E489A
:109ED000006838B128462C4909688847064606B903
:109EE00070BD00BF29A0E16B00F078F92BA0216ABA
:109EF00000F074F92DA0616A00F070F92FA0A16A3A
:109F000000F06CF931A0E16A00F068F933A0216833
:109F100000F064F935A0616800F060F937A0A1682D
:109F200000F05CF939A0E16800F058F93BA0216924
:109F300000F054F93DA0616900F050F93FA0A1691B
:109F400000F04CF941A0E16900F048F943A0216B11
:109F500000F044F945A0616B00F040F947A0A16B07
:109F600000F03CF9287800F0040038B100F08CFED5
:109F70000646314645A000F031F902E04BA000F062
:109F80002DF900BFFEE70000D00000207073723A88
:109F9000203078253038780A000000007230303ADE
:109FA000203078253038780A000000007230313ACD
:109FB000203078253038780A000000007230323ABC
:109FC000203078253038780A000000007230333AAB
:109FD000203078253038780A000000007230343A9A
:109FE000203078253038780A000000007230353A89
:109FF000203078253038780A000000007230363A78
:10A00000203078253038780A000000007230373A66
:10A01000203078253038780A000000007230383A55
:10A02000203078253038780A000000007230393A44
:10A03000203078253038780A000000007231303A3C
:10A04000203078253038780A000000007231313A2B
:10A05000203078253038780A000000007231323A1A
:10A06000203078253038780A00000000206C723AE1
:10A07000203078253038780A000000002070633ADC
:10A08000203078253038780A00000000686172645A
:10A09000206661756C74206F6E20746872656164EF
:10A0A0003A2025730D0A0D0A0000000068617264F1
:10A0B000206661756C74206F6E2068616E646C65DB
:10A0C000720D0A0D0A000000F0B504460D46164652
:10A0D000301D20F0070040380146002203E00C4FFD
:10A0E00041F82270521C102AF9D30D624FF0000C77
:10A0F000C1F824C0C1F828C0C1F82CC0C1F830C0D4
:10A100004B638C634FF0807CC1F83CC0F0BD000015
:10A11000EFBEADDE10B5FEF779F8044604480078CE
:10A12000401C034908702046FEF774F810BD00007B
:10A130000C00002001480078704700000C0000204F
:10A1400010B5FEF763F8044604480078401E034942
:10A1500008702046FEF75EF810BD00000C000020DD
:10A160002DE9F04105460C469046204600F0CAFD18
:10A17000B8F1000F03D0B8F1010F23D105E004F1CD
:10A180001401284600F079F81CE02E680FE0A6F1D3
:10A19000140794F8350097F83510884206DA04F170
:10A1A000140107F1140000F068F802E03668AE42CE
:10A1B000EDD100BFAE4204D104F11401284600F0F5
:10A1C0005CF800BF00BF0020BDE8F081014601F14E
:10A1D00014004060006000BF002070470FB438B525
:10A1E00005A800907F211548009B049A00F022FFEB
:10A1F00004467F2C00D97F241148006818B90F4805
:10A20000FFF744FE15E00E480068058B0C48006817
:10A21000008B40F040000A49096808832346074A3A
:10A22000002107480068FFF757FD054800680583CF
:10A2300000BF0020009038BC5DF814FBAC02002089
:10A24000140000204060006070474060006070476C
:10A250000268516002680A600160486070470268E5
:10A26000516002680A60016048607047026851608E
:10A2700002680A6001604860704742681160426885
:10A280004A6041600860704701460868884201D111
:10A29000012070470020FCE701460868884201D190
:10A2A000012070470020FCE7D0E900215160D0E98F
:10A2B00000121160406000607047D0E900215160D9
:10A2C000D0E9001211604060006070472DE9F04154
:10A2D000054615B90020BDE8F081E81C20F0030513
:10A2E0004E480068854201D90020F4E70C2D00D2C9
:10A2F0000C254FF0FF314A4800F01AFA494800682F
:10A3000049490968461A7EE0474800688419608810
:10A31000002874D106F10C006168081AA8426ED3B7
:10A3200006F10C006168091A05F11800814230D36A
:10A3300006F10C0000EB05083B48006800EB08073D
:10A340004FF4F55038800020788060687860BE60F7
:10A35000C4F80480012060803048796800680C30BF
:10A36000814205D03049786809680844C0F80880FF
:10A370002E48016805F10C0008442C4908602C485F
:10A3800000680968884219D228480068284908608E
:10A3900014E001206080244960680968611A401A4D
:10A3A0002249096808442149086021480068096871
:10A3B000884203D21D4800681D4908604FF4F550DB
:10A3C000208018480068844212D107E015480068D0
:10A3D0004068154909680844124908601148006836
:10A3E000408828B10F480068124909688842EDD1B9
:10A3F0000B4800F07AF904F10C006CE7FFE70A481B
:10A4000000683044466805480068401BB0423FF68B
:10A410007BAF034800F069F900205CE724000020CE
:10A420002C0300202000002018000020280000201D
:10A430002C0000201C000020F0B50C460546E6B2BA
:10A44000042A15D300F0030797B9014646EA06230C
:10A4500043EA034304E008C108C108C108C1103A37
:10A46000102AF8D201E008C1121F042AFBD20D46BF
:10A4700001E005F8016B171EA2F10102F9D1F0BD50
:10A480002DE9F04106460F46304600F045F80546F6
:10A49000E868FFF71BFF044614B90020BDE8F0810F
:10A4A00000212046EA68FFF7C7FF2672002060728D
:10A4B00008223946204600F0FEF9FDF7A7FE804647
:10A4C00004F10C01281DFFF7C3FE4046FDF7A2FE74
:10A4D0002046E3E770B5044600202072FDF796FEA3
:10A4E000054604F10C00FFF7DFFE2846FDF792FE5B
:10A4F0002046FFF73FFC70BD70B504460020207277
:10A50000FDF784FE054604F10C00FFF7CDFE28465A
:10A51000FDF780FE70BD0000024600210AE00748FA
:10A5200000EB01100078904203D1044800EB0110C9
:10A530007047491C0729F2DB0020F9E730000020B2
:10A540002DE9F04104460D4616462846FFF7E4FF84
:10A55000074645F08000207208223146204600F070
:10A56000AAF9FDF753FE804604F10C01381DFFF7F0
:10A570006FFE4046FDF74EFEBDE8F0810146087AC9
:10A5800000F0800008B1012070470020FCE70000C7
:10A590002DE9F041FDF73AFE07461B48008868BBED
:10A5A0001A480068FFF788F8461E194850F8360028
:10A5B000A0F114041748006884421BD016490E709D
:10A5C0001448056804601548007848B904F11C0176
:10A5D00005F11C00FDF721FE3846FDF71BFE0CE0DF
:10A5E00004F11C0105F11C00FDF717FE3846FDF7CC
:10A5F00011FE02E03846FDF70DFE02E03846FDF799
:10A6000009FEBDE8F0810000A0000020AC000020A1
:10A610004C030020A4000020A80000200C00002013
:10A6200070B50446FDF7F2FD054614F8340F20F02E
:10A630000F0040F0010020706278343C0A4B03EBBD
:10A64000C20004F114014268116042684A6041602E
:10A65000086000BF0549A06B09680843034908600A
:10A660002846FDF7D7FD70BD4C030020AC0000204C
:10A6700070B50446FDF7CAFD054604F11400D0E9A3
:10A6800000215160D0E9001211604060006000BFFD
:10A6900094F83510094A02EBC1000168814201D1EA
:10A6A000012100E0002129B10548A16B0068884321
:10A6B000034908602846FDF7ADFD70BD4C0300203E
:10A6C000AC0000202DE9F04104460D4616461F4619
:10A6D0002A4601212046FFF733FF2046FFF776FD8B
:10A6E000A68367720020BDE8F0812DE9F0410446A1
:10A6F0000025FDF78BFD074604F11400FFF7C4FDAC
:10A7000048B900BF6069A0F11406304600F09EFA17
:10A7100000BF012502E0A08B401CA0833846FDF756
:10A7200079FD012D01D1FFF733FF0020BDE8F08155
:10A7300073B50546FDF76AFD0646A88B002806DDC1
:10A74000A88B401EA8833046FDF764FD28E00198E1
:10A7500028B93046FDF75EFD6FF001007CBD00F0CA
:10A7600093FA0446002020636A7A214605F114001A
:10A77000FFF7F6FC0198002809DD01AA002104F189
:10A780004C0000F07FFB04F14C0000F0BFFB3046B2
:10A79000FDF740FDFFF7FCFE206B08B1206BDDE705
:10A7A0000020DBE770B50446FFF7C4FC10B1064893
:10A7B000046070BD00F068FA054615B902480460EF
:10A7C000F7E72C6300BFF4E71000002008B509A0EC
:10A7D000FFF704FD0AA0FFF701FD12A002230122EA
:10A7E0000321009012A0FFF7F9FC19A0FFF7F6FC77
:10A7F00008BD00000A205C207C202F0A0000000019
:10A800002D205254202D2020202020546872656174
:10A8100064204F7065726174696E67205379737438
:10A82000656D0A004D6179202038203230313900C1
:10A83000202F207C205C202020202025642E2564D1
:10A840002E2564206275696C642025730A0000005F
:10A850002032303036202D203230313920436F7095
:10A860007972696768742062792072742D746872D5
:10A87000656164207465616D0A00000001460A4646
:10A8800000E0521C10780028FBD1501A704730B5F8
:10A89000034600200BE011F8015B1C78641B64B2D6
:10A8A000201E02D113F8015B05B902E0521E002AF6
:10A8B000F1D100BF30BD70B50346A2B118460C46B9
:10A8C00000BF14F8016B00F8016B3EB902E00025EF
:10A8D00000F8015B551E2A1EF9D102E0551E2A1E02
:10A8E000EFD100BF00BF184670BD00002DE9F04158
:10A8F00005460E46E81C20F0030726F00308B8F1D1
:10A90000180F09D9A8F11800B84205D3A8EB070021
:10A9100018381E49086006E0324629461CA0FFF799
:10A920005DFCBDE8F0812948076004684FF4F550EC
:10A930002080164800680C3060600020A0606080B5
:10A940002249606809680844214908604FF4F550BD
:10A950000968088001201E49096848800B48006882
:10A960000C301B4909684860084800680C301849D9
:10A97000096888600023012216A11848FFF7A2FE8B
:10A98000124800681649086000BFCAE7240000208A
:10A990006D656D20696E69742C206572726F72200E
:10A9A000626567696E2061646472657373203078D4
:10A9B00025782C20616E6420656E64206164647269
:10A9C00065737320307825780A0000001800002095
:10A9D0001C00002068656170000000002C0300204E
:10A9E0002000002010B500200B490880002405E05D
:10A9F0000A4901EBC400FFF725FC641C202CF7DB9F
:10AA00001F200749087000200649086006490860B1
:10AA10000648FFF717FC10BDA00000204C030020E3
:10AA2000A8000020A4000020AC000020B0000020FE
:10AA300070B508480068FEF73FFE451E064850F80E
:10AA40003500A0F114040548046004F11C00FDF772
:10AA500012FC70BDAC0000204C030020A4000020BC
:10AA600010B5002405E0044901EBC400FFF7EDFB3D
:10AA7000641C002CF7D010BDB800002070472DE9F1
:10AA8000FF5F06460F4690461D46DDE90EAB314698
:10AA90000020FFF7F5FC8146B9F1000F03D100203B
:10AAA00004B0BDE8F09F2846FFF710FC044624B927
:10AAB0004846FFF70FFD0020F2E743463A4631468D
:10AAC00048468DE8300CFEF727FE4846E8E710B50B
:10AAD0000446204600F0DEF810BD000070B51248B4
:10AAE0000468FDF793FB05462046FFF7C1FD0420EF
:10AAF00084F8340004F14C0000F0E0F92046FFF740
:10AB00003DFD012805D1A06F18B92046FFF7F4FCE0
:10AB100004E004F114010548FFF7A1FB2846FDF706
:10AB200079FBFFF735FD70BDA4000020B0000020C8
:10AB30000FE0002408E0074850F8240018B1054948
:10AB400051F824008047641C042CF4D300F004F86E
:10AB500000BFEEE79C02002070B537E0FDF756FB22
:10AB60000546FEF7CFFD18B31B480068A0F114049A
:10AB700004F11400D0E900215160D0E90012116005
:10AB80004060006000BFFFF7C7F8A06F10B120461B
:10AB9000A16F88472046FFF7F1FC012805D1FFF798
:10ABA000CBF82846FDF736FB70BDFFF7C5F803E08C
:10ABB0002846FDF72FFBF7E72846FDF72BFBA06A99
:10ABC000FFF7D8F82046FFF785FC00BFFEF79AFD97
:10ABD0000028C3D100BFE7E7B00000201FB5202048
:10ABE0001F21C200074BCDE90032CDE9021000233E
:10ABF000054A06A1074800F00FF8064800F06CF877
:10AC00001FBD00009C01002031AB00087469646C1A
:10AC1000650000001C0100202DE9FF5F05460C4681
:10AC200016461F46DDE910ABDDE90E8922460021FC
:10AC30002846FFF785FC3B463246214628468DE8EC
:10AC4000000FFEF769FD04B0BDE8F09F70B5044643
:10AC500094F8340000F00F00022802D04FF0FF30CB
:10AC600070BDFDF7D3FA054604F11400FFF725FB8C
:10AC700004F14C0000F0C6F92846FDF7CBFA204657
:10AC8000FFF7CEFC0020EBE70148006870470000AA
:10AC9000A400002031B5FDF7B9FA05460D48046857
:10ACA000204600F02FF86A46002104F14C0000F025
:10ACB000E9F804F14C0000F029F92846FDF7AAFA5A
:10ACC000FFF766FC206B801C08B900202063002081
:10ACD00038BD0000A400002010B504463434A0782C
:10ACE00060706178012088406060022004F83409B7
:10ACF0002046FFF7ABFFFFF7C7FF08B1FFF748FC9F
:10AD0000002010BD70B5044694F8340000F00F0028
:10AD1000012802D04FF0FF3070BDFDF777FA0546ED
:10AD200094F8340020F00F0040F0020084F8340062
:10AD30002046FFF79DFC04F14C0000F063F9284623
:10AD4000FDF768FA0020E7E770B5044625466FF086
:10AD50000100286305F11400FFF7AFFA2846FFF75A
:10AD60005FFCFFF715FC70BD70B5FDF74FFA0546A7
:10AD70001448046894F8340000F00F0001281CD136
:10AD8000D4E90510814218D004F11400FFF795FAB8
:10AD900094F835200C4B03EBC20004F11401426817
:10ADA000116042684A604160086000BF2846FDF7B4
:10ADB00031FAFFF7EDFB002070BD2846FDF72AFAB7
:10ADC0000020F9E7A40000204C030020014800689F
:10ADD000704700000800002010B50A480068401CB9
:10ADE00008490860FFF750FF0446A06C401EA064AD
:10ADF000A06C18B9606CA064FFF7B6FF00F004F80F
:10AE000010BD00000800002070B5FFF7DFFF054609
:10AE1000FDF7FCF9064628E019480068A0F1140483
:10AE2000A06A281A6FF0004188421DD22046FEF722
:10AE3000D6FCD4E907108847FFF7C8FF0546607ABB
:10AE400000F0020058B1607A00F0010038B1607A79
:10AE500020F001006072204600F058F805E0607AAA
:10AE600020F00100607200E004E00548FFF714FAEA
:10AE70000028D1D000BF3046FDF7CCF970BD0000EE
:10AE8000B8000020034649B1012904D0022908D0A6
:10AE9000032910D10AE0586A10600CE0106858626B
:10AEA00009E0587A20F00200587204E0587A40F025
:10AEB0000200587200BF00BF0020704770B5044602
:10AEC000FDF7A4F905462046FEF789FC2846FDF764
:10AED000A1F92046FFF710FB002070BD2DE9F843D3
:10AEE00007460C4615461E46DDE90889224609211B
:10AEF0003846FFF725FB4346324629463846CDF80B
:10AF00000090FEF74BFCBDE8F88300002DE9F84304
:10AF10000546FDF77BF980462846FEF760FC687A17
:10AF200020F0010068724046FDF774F9FFF74EFF0C
:10AF3000696A0844A862FDF769F980462F4F0097B7
:10AF400000242AE019E05DF824201168142202EBA5
:10AF5000C402881A826AAB6AD21A00D108E0826AF7
:10AF6000AB6AD21A6FF000439A4200D20CE000BFE5
:10AF70005DF8240000684DF824005DF8240007EB1C
:10AF8000C40149688842DED100BF2CB15DF82400BD
:10AF90000830611C4DF82100641C002CD2D01848E8
:10AFA0000068401C164908600846066805F114014F
:10AFB0000098FFF75BF9022412E006F0030060B985
:10AFC000C4F1010305F1140202EBC301C4F1010253
:10AFD0005DF82200FFF74AF900E003E0B608641CC0
:10AFE000012CEAD900BF687A40F00100687240463F
:10AFF000FDF710F90020BDE8F8830000B80000203C
:10B00000C000002070B50446607A00F0010010B95D
:10B010004FF0FF3070BDFDF7F9F805462046FEF70A
:10B02000DEFB2846FDF7F6F8607A20F0010060723A
:10B030000020EFE72DE9FF4F89B0804644460A988B
:10B040004044461E464504D24FF0FF36A6EB0800AA
:10B050000A906FE10B980078252806D0B44202D8F8
:10B060000B9800782070641C61E1002526E00B98A5
:10B07000401C0B900B9800782D2802D145F010054C
:10B080001CE00B9800782B2802D145F0040515E050
:10B090000B980078202802D145F008050EE00B98A7
:10B0A0000078232802D145F0200507E00B980078AE
:10B0B000302802D145F0010500E000E0D7E700BFED
:10B0C0004FF0FF370B98007830380A2804D20BA8CD
:10B0D00000F061F907460EE00B9800782A280AD1A3
:10B0E0000B98401C0B900C9880C80C90002F02DA33
:10B0F0007F4245F010054FF0FF390B9800782E285D
:10B100001CD10B98401C0B900B98007830380A2803
:10B1100004D20BA800F03FF981460AE00B980078B2
:10B120002A2806D10B98401C0B900C9850F8049BD1
:10B130000C90B9F1000F01DA4FF0000900200490E3
:10B140000B980078682803D00B9800786C2805D1FC
:10B150000B98007804900B98401C0B900A200590E7
:10B160000B9800786F2875D00CDC632813D004DCB2
:10B17000252870D058286FD18DE064286DD06928BB
:10B18000F9D18FE070286AD0732825D0752878D03F
:10B190007828F0D182E005F0100040B904E0B44214
:10B1A00001D820202070641C781E071EF7DC0C9844
:10B1B00010F8041B0C90C8B20790B44201D807984D
:10B1C0002070641C04E0B44201D820202070641C6C
:10B1D000781E071EF7DCAAE00C98006806900C9811
:10B1E000001D0C90069808B95AA006900698FFF723
:10B1F00045FB8346B9F1000F02DDCB4500DDCB46B0
:10B2000005F0100048B904E0B44201D820202070B5
:10B21000641C38467F1E5845F6DC002008900BE081
:10B22000B44202D8069800782070641C0698401C2E
:10B2300006900898401C089008985845F0DB04E0F8
:10B24000B44201D820202070641C38467F1E584527
:10B25000F6DC6CE01CE015E028E022E0FFE7781C5B
:10B2600010B9082745F00105CDE9007902950C9841
:10B2700004C8102331460C902046FEF775FB0446A7
:10B2800055E012E0B44201D825202070641C4EE045
:10B29000082005901DE045F0400500BF10200590F6
:10B2A00017E000BF45F0020500BF12E0B44201D82C
:10B2B00025202070641C0B98007830B1B44202D86D
:10B2C0000B9800782070641C02E00B98401E0B90D5
:10B2D0002DE000BF04986C2807D10C9850F804ABFF
:10B2E0000C9005F00200B8B116E0049868280BD164
:10B2F0000C9830F8041B1FFA81FA0C9005F002003C
:10B3000050B10FFA8AFA07E00C9850F804AB0C9091
:10B3100005F0020000B100BFCDE900790295524668
:10B3200031462046059BFEF71FFB044600BF0B98E5
:10B33000401C0B900B98007800287FF48BAEB44231
:10B3400001D8207001E000203070A4EB08000DB09F
:10B35000BDE8F08F284E554C4C2900000020704766
:10B3600000207047002070470020704710B5FCF7A0
:10B370004DFFFEF76FFDFFF729FAFFF771FBFFF7AF
:10B3800031FBFEF7BDFBFFF779FBFFF727FCFFF76B
:10B390004FFB002010BD0146002009E00B685A1C3D
:10B3A0000A601A7800EB800302EB4302A2F130003E
:10B3B0000A681278303A0A2AF0D370471CB50A207E
:10B3C00003214FF480730022CDE90010104911A031
:10B3D000FFF755FB114908600846006818B1084698
:10B3E0000068FFF779FC0520042180230022CDE9C5
:10B3F00000100B490BA0FFF742FB0C490860084600
:10B40000006818B108460068FFF766FC01201CBD03
:10B41000119800086C65643100000000D400002021
:10B42000799800086C65643200000000D8000020A4
:10B4300000000000000000000102030406070809E4
:10B4400000000000010203040000010002000100EE
:10B4500003000100020001000400010002000100DD
:10B4600003000100020001000500010002000100CC
:10B4700003000100020001000400010002000100BD
:10B4800003000100020001000600010002000100AB
:10B49000030001000200010004000100020001009D
:10B4A000030001000200010005000100020001008C
:10B4B000030001000200010004000100020001007D
:10B4C000030001000200010007000100020001006A
:10B4D000030001000200010004000100020001005D
:10B4E000030001000200010005000100020001004C
:10B4F000030001000200010004000100020001003D
:10B50000030001000200010006000100020001002A
:10B51000030001000200010004000100020001001C
:10B52000030001000200010005000100020001000B
:10B5300003000100020001000400010002000100FC
:10B540000300010002000100303132333435363758
:10B5500038396162636465660030313233343536C0
:10B5600037383941424344454600000069B300087A
:10B5700061B300085DB30008BDB3000865B30008FF
:10B58000A0B5000800000020DC0000006C8100086D
:10B590007CB60008DC000020D40900008881000887
:10B5A00000A24A04000000000000000000000000AB
:10B5B000000000000000000000000000000000008B
:10B5C000000000000000000000000000000000007B
:10B5D0000000000034000020340000208000000043
:10B5E0000100000044000020440000202000000072
:10B5F0000300000054000020540000202000000040
:10B6000006000000640000206400002064000000C8
:10B6100007000000740000207400002038000000C3
:10B62000080000008400002084000020400000008A
:10B630000900000094000020940000202C0000006D
:10B6400000000000000000000000000000000000FA
:10B6500000000000000000000000000000000000EA
:10B6600000000000000000000000000000000000DA
:0CB67000000000000000000000000000CE
:04000005080081313D
:00000001FF
